:020000040800F2
:100000000000022035990008E1180008E9180008EE
:10001000F1180008F9180008011900080000000094
:1000200000000000000000000000000009190008A6
:1000300017190008000000002519000833190008EE
:100040008599000885990008859900088599000818
:100050008599000885990008859900088599000808
:1000600085990008859900088599000885990008F8
:1000700041190008859900088599000885990008AC
:100080008599000885990008859900085519000888
:1000900069190008859900087D19000885990008EC
:1000A00085990008859900088599000885990008B8
:1000B00085990008859900088599000885990008A8
:1000C0008599000885990008859900088599000898
:1000D000859900089119000885990008A51900085C
:1000E0008599000885990008859900088599000878
:1000F0008599000885990008859900088599000868
:100100008599000885990008859900088599000857
:100110008599000885990008B91900088599000893
:1001200085990008CD19000885990008859900086F
:10013000859900088599000885990008E11900084B
:10014000F5190008091A00081D1A00088599000809
:1001500085990008311A0008451A0008591A000844
:1001600085990008859900088599000885990008F7
:10017000859900088599000885990008000000000D
:0801800085990008859900082B
:1001900010B5054C237833B9044B13B10448AFF3C1
:1001A00000800123237010BD8400002000000000A7
:1001B0004099010808B5034B1BB103490348AFF34D
:1001C000008008BD00000000880000204099010860
:1001D00001F0FF01102A2BDB10F0070F08D010F8F8
:1001E000013B013A8B422DD010F0070F42B3F6D1FC
:1001F000F0B441EA012141EA014122F007047FF015
:1002000000070023F0E80256083C85EA010586EA6B
:10021000010685FA47F5A3FA87F586FA47F6A5FAA7
:1002200087F68EB9EED1F0BC01F0FF0102F00702B3
:1002300032B110F8013B013A83EA010313B1F8D15E
:100240000020704701387047002D06BF354603383F
:10025000073815F0010F07D1013015F4807F02BF78
:10026000013015F4C03F0130F0BC0138704700BFC9
:1002700081F0004102E000BF83F0004330B54FEA57
:1002800041044FEA430594EA050F08BF90EA020FC4
:100290001FBF54EA000C55EA020C7FEA645C7FEA57
:1002A000655C00F0E2804FEA5454D4EB5555B8BF7A
:1002B0006D420CDD2C4480EA020281EA030382EAEB
:1002C000000083EA010180EA020281EA0303362D7D
:1002D00088BF30BD11F0004F4FEA01314FF4801C50
:1002E0004CEA113102D0404261EB410113F0004F62
:1002F0004FEA03334CEA133302D0524263EB430319
:1003000094EA050F00F0A780A4F10104D5F1200EB6
:100310000DDB02FA0EFC22FA05F2801841F1000111
:1003200003FA0EF2801843FA05F359410EE0A5F1E5
:1003300020050EF1200E012A03FA0EFC28BF4CF016
:10034000020C43FA05F3C01851EBE37101F00045CC
:1003500007D54FF0000EDCF1000C7EEB00006EEBD9
:100360000101B1F5801F1BD3B1F5001F0CD3490863
:100370005FEA30004FEA3C0C04F101044FEA4452BA
:1003800012F5800F80F09A80BCF1004F08BF5FEA41
:10039000500C50F1000041EB045141EA050130BD21
:1003A0005FEA4C0C404141EB0101013C28BFB1F533
:1003B000801FE9D291F0000F04BF01460020B1FA7E
:1003C00081F308BF2033A3F10B03B3F120020CDA51
:1003D0000C3208DD02F1140CC2F10C0201FA0CF02F
:1003E00021FA02F10CE002F11402D8BFC2F1200C94
:1003F00001FA02F120FA0CFCDCBF41EA0C0190404A
:10040000E41AA2BF01EB0451294330BD6FEA040492
:100410001F3C1CDA0C340EDC04F11404C4F120027D
:1004200020FA04F001FA02F340EA030021FA04F38F
:1004300045EA030130BDC4F10C04C4F1200220FAE6
:1004400002F001FA04F340EA0300294630BD21FA24
:1004500004F0294630BD94F0000F83F4801306BFEA
:1004600081F480110134013D4EE77FEA645C18BFDE
:100470007FEA655C29D094EA050F08BF90EA020F75
:1004800005D054EA000C04BF1946104630BD91EA6D
:10049000030F1EBF0021002030BD5FEA545C05D170
:1004A0004000494128BF41F0004130BD14F58004AF
:1004B0003CBF01F5801130BD01F0004545F0FE4123
:1004C00041F470014FF0000030BD7FEA645C1ABF58
:1004D000194610467FEA655C1CBF0B46024650EA8F
:1004E000013406BF52EA033591EA030F41F40021BB
:1004F00030BD00BF90F0000F04BF0021704730B541
:100500004FF4806404F132044FF000054FF0000115
:1005100050E700BF90F0000F04BF0021704730B5D6
:100520004FF4806404F1320410F0004548BF4042AB
:100530004FF000013EE700BF42004FEAE2014FEA00
:1005400031014FEA02701FBF12F07F4393F07F4FDB
:1005500081F06051704732F07F4208BF704793F0DE
:100560007F4F04BF41F40021704730B54FF46074F1
:1005700001F0004521F000411CE700BF50EA0102F4
:1005800008BF704730B54FF000050AE050EA01029D
:1005900008BF704730B511F0004502D5404261EB0D
:1005A00041014FF4806404F132045FEA915C3FF44E
:1005B000D8AE4FF003025FEADC0C18BF03325FEAEB
:1005C000DC0C18BF033202EBDC02C2F1200300FA9C
:1005D00003FC20FA02F001FA03FE40EA0E0021FAC1
:1005E00002F11444BDE600BF70B54FF0FF0C4CF4AF
:1005F000E06C1CEA11541DBF1CEA135594EA0C0F61
:1006000095EA0C0F00F0DEF82C4481EA030621EA9B
:100610004C5123EA4C5350EA013518BF52EA0335D6
:1006200041F4801143F4801338D0A0FB02CE4FF088
:100630000005E1FB02E506F00042E0FB03E54FF0B8
:100640000006E1FB03569CF0000F18BF4EF0010EB0
:10065000A4F1FF04B6F5007F64F5407404D25FEAAC
:100660004E0E6D4146EB060642EAC62141EA55515F
:100670004FEAC52040EA5E504FEACE2EB4F1FD0CA1
:1006800088BFBCF5E06F1ED8BEF1004F08BF5FEA1F
:10069000500E50F1000041EB045170BD06F00046D1
:1006A00046EA010140EA020081EA0301B4EB5C047E
:1006B000C2BFD4EB0C0541EA045170BD41F4801176
:1006C0004FF0000E013C00F3AB8014F1360FDEBF9B
:1006D000002001F0004170BDC4F10004203C35DA77
:1006E0000C341BDC04F11404C4F1200500FA05F3FA
:1006F00020FA04F001FA05F240EA020001F000429B
:1007000021F0004110EBD37021FA04F642EB060110
:100710005EEA430E08BF20EAD37070BDC4F10C043A
:10072000C4F1200500FA04F320FA05F001FA04F2FE
:1007300040EA020001F0004110EBD37041F10001EA
:100740005EEA430E08BF20EAD37070BDC4F12005F5
:1007500000FA05F24EEA020E20FA04F301FA05F25D
:1007600043EA020321FA04F001F0004121FA04F205
:1007700020EA020000EBD3705EEA430E08BF20EAD5
:10078000D37070BD94F0000F0FD101F0004640000F
:1007900041EB010111F4801F08BF013CF7D041EA91
:1007A000060195F0000F18BF704703F00046520095
:1007B00043EB030313F4801F08BF013DF7D043EA66
:1007C0000603704794EA0C0F0CEA135518BF95EA1C
:1007D0000C0F0CD050EA410618BF52EA4306D1D1A3
:1007E00081EA030101F000414FF0000070BD50EAC2
:1007F000410606BF1046194652EA430619D094EA4C
:100800000C0F02D150EA013613D195EA0C0F05D135
:1008100052EA03361CBF104619460AD181EA030189
:1008200001F0004141F0FE4141F470014FF0000041
:1008300070BD41F0FE4141F4780170BD70B54FF0DC
:10084000FF0C4CF4E06C1CEA11541DBF1CEA13555C
:1008500094EA0C0F95EA0C0F00F0A7F8A4EB05043E
:1008600081EA030E52EA03354FEA013100F0888035
:100870004FEA03334FF0805545EA131343EA1263FE
:100880004FEA022245EA111545EA10654FEA0026B3
:100890000EF000419D4208BF964244F1FD0404F56C
:1008A000407402D25B084FEA3202B61A65EB0305C8
:1008B0005B084FEA32024FF480104FF4002CB6EB85
:1008C000020E75EB030E22BFB61A754640EA0C0005
:1008D0005B084FEA3202B6EB020E75EB030E22BF45
:1008E000B61A754640EA5C005B084FEA3202B6EB86
:1008F000020E75EB030E22BFB61A754640EA9C0045
:100900005B084FEA3202B6EB020E75EB030E22BF14
:10091000B61A754640EADC0055EA060E18D04FEAD2
:10092000051545EA16754FEA06164FEAC30343EA72
:1009300052734FEAC2025FEA1C1CC0D111F4801F3F
:100940000BD141EA00014FF000004FF0004CB6E738
:1009500011F4801F04BF01430020B4F1FD0C88BFD7
:10096000BCF5E06F3FF6AFAEB5EB030C04BFB6EBE2
:10097000020C5FEA500C50F1000041EB045170BDD5
:100980000EF0004E4EEA113114EB5C04C2BFD4EB02
:100990000C0541EA045170BD41F480114FF0000E86
:1009A000013C90E645EA060E8DE60CEA135594EA02
:1009B0000C0F08BF95EA0C0F3FF43BAF94EA0C0F05
:1009C0000AD150EA01347FF434AF95EA0C0F7FF47A
:1009D00025AF104619462CE795EA0C0F06D152EACE
:1009E00003353FF4FDAE1046194622E750EA4106B2
:1009F00018BF52EA43067FF4C5AE50EA41047FF4C3
:100A00000DAF52EA43057FF4EBAE12E74FF0FF3C27
:100A100006E000BF4FF0010C02E000BF4FF0010CF8
:100A20004DF804CD4FEA410C7FEA6C5C4FEA430C71
:100A300018BF7FEA6C5C1BD001B050EA410C0CBFC0
:100A400052EA430C91EA030F02BF90EA020F002022
:100A5000704710F1000F91EA030F58BF994208BF89
:100A600090422CBFD8176FEAE37040F00100704746
:100A70004FEA410C7FEA6C5C02D150EA013C07D19D
:100A80004FEA430C7FEA6C5CD6D152EA033CD3D0E8
:100A90005DF8040B704700BF8446104662468C46E2
:100AA0001946634600E000BF01B5FFF7B7FF002815
:100AB00048BF10F1000F01BD4DF808EDFFF7F4FF3E
:100AC0000CBF012000205DF808FB00BF4DF808EDC9
:100AD000FFF7EAFF34BF012000205DF808FB00BFEC
:100AE0004DF808EDFFF7E0FF94BF012000205DF80E
:100AF00008FB00BF4DF808EDFFF7CEFF94BF0120C3
:100B000000205DF808FB00BF4DF808EDFFF7C4FFBB
:100B100034BF012000205DF808FB00BF4FEA410C04
:100B20007FEA6C5C02D150EA013C0AD14FEA430CE7
:100B30007FEA6C5C02D152EA033C02D14FF0000024
:100B400070474FF0010070474FEA410212F5001262
:100B500015D211D56FF47873B3EB625212D94FEA04
:100B6000C12343F0004343EA505311F0004F23FAEE
:100B700002F018BF404270474FF00000704750EA43
:100B8000013005D111F0004008BF6FF00040704700
:100B90004FF00000704700BF4FEA4102B2F1E0435E
:100BA00024BFB3F5001CDCF1FE5C0DD901F0004C54
:100BB0004FEAC0024CEA5070B2F1004F40EB8300A4
:100BC00008BF20F00100704711F0804F21D113F1D0
:100BD0003872BCBF01F00040704741F480114FEA09
:100BE0005252C2F11802C2F1200C10FA0CF320FA92
:100BF00002F018BF40F001004FEAC1234FEAD323AF
:100C000003FA0CFC40EA0C0023FA02F34FEA430318
:100C1000CCE77FEA625307D150EA01331EBF4FF0A1
:100C2000FE4040F44000704701F0004040F0FE40BC
:100C300040F40000704700BF80F0004002E000BFB9
:100C400081F0004142001FBF5FEA410392EA030FB7
:100C50007FEA226C7FEA236C6AD04FEA1262D2EB01
:100C60001363C1BFD218414048404140B8BF5B4206
:100C7000192B88BF704710F0004F40F4000020F09F
:100C80007F4018BF404211F0004F41F4000121F0B5
:100C90007F4118BF494292EA030F3FD0A2F10102FF
:100CA00041FA03FC10EB0C00C3F1200301FA03F13D
:100CB00000F0004302D5494260EB4000B0F5000F60
:100CC00013D3B0F1807F06D340084FEA310102F11F
:100CD0000102FE2A51D2B1F1004F40EBC25008BFD1
:100CE00020F0010040EA03007047490040EB00009B
:100CF000013A28BFB0F5000FEDD2B0FA80FCACF19C
:100D0000080CB2EB0C0200FA0CF0AABF00EBC250C8
:100D100052421843BCBFD0401843704792F0000FB6
:100D200081F4000106BF80F400000132013BB5E709
:100D30004FEA41037FEA226C18BF7FEA236C21D07F
:100D400092EA030F04D092F0000F08BF08467047E4
:100D500090EA010F1CBF0020704712F07F4F04D1B2
:100D6000400028BF40F00040704712F100723CBFC5
:100D700000F50000704700F0004343F0FE4040F4EF
:100D8000000070477FEA226216BF08467FEA2363AD
:100D90000146420206BF5FEA412390EA010F40F498
:100DA000800070474FF0000304E000BF10F00043E4
:100DB00048BF40425FEA000C08BF704743F09643CB
:100DC00001464FF000001CE050EA010208BF7047E6
:100DD0004FF000030AE000BF50EA010208BF70476D
:100DE00011F0004302D5404261EB41015FEA010C82
:100DF00002BF84460146002043F0B64308BFA3F17A
:100E00008053A3F50003BCFA8CF2083AA3EBC2535B
:100E100010DB01FA02FC634400FA02FCC2F120027A
:100E2000BCF1004F20FA02F243EB020008BF20F0B1
:100E30000100704702F1200201FA02FCC2F1200217
:100E400050EA4C0021FA02F243EB020008BF20EA0C
:100E5000DC70704753B94AB9002908BF00281CBF8D
:100E60004FF0FF314FF0FF3000F06AB9ADF1080CE0
:100E70006DE904CE00F006F8DDF804E0DDE90223B8
:100E800004B070472DE9F047089D0C46002B4ED169
:100E900094468C458646B2FA82F262D94AB1C2F1D2
:100EA0002003914020FA03F30CFA02FC194300FAE4
:100EB00002FE4FEA1C471FFA8CF6B1FBF7F44FEA2B
:100EC0001E4307FB141143EA014304FB06F1994258
:100ED0000AD91CEB030304F1FF3080F01281994220
:100EE00040F20F81023C6344591A1FFA8EF3B1FBA2
:100EF000F7F007FB101143EA014300FB06F69E42A0
:100F00000AD91CEB030300F1FF3180F0FC809E4204
:100F100040F2F980634402389B1B40EA0440002100
:100F20001DB1D3400022C5E90032BDE8F0878B42F5
:100F300005D90DB1C5E9000100210846F5E7B3FA6E
:100F400083F1002946D1A34202D39042C0F0F08041
:100F5000861A64EB03030120002DE6D0C5E9006387
:100F6000E3E7002A40F09080A1EB0C044FEA1C4814
:100F70001FFA8CF70121B4FBF8F64FEA1E4308FB79
:100F8000164443EA044307FB06F0984208D91CEBD9
:100F9000030306F1FF3402D2984200F2CD802646C8
:100FA0001C1A1FFA8EF3B4FBF8F008FB104443EA56
:100FB000044300FB07F79F4208D91CEB030300F131
:100FC000FF3402D29F4200F2B0802046DB1B40EA91
:100FD0000640A5E7C1F120068B4022FA06F71F4321
:100FE00020FA06FC04FA01F343EA0C03F44000FA89
:100FF00001F8380C4FEA1349B4FBF0FE1FFA87FCE6
:1010000000FB1E4449EA04440EFB0CF9A14502FA18
:1010100001F20AD93C190EF1FF3A80F08480A14513
:1010200040F28180AEF1020E3C44A4EB09041FFAA9
:1010300083F9B4FBF0F300FB134449EA044403FBD7
:101040000CFCA44507D93C1903F1FF3067D2A44535
:1010500065D9023B3C4443EA0E40A0FB0293A4EB5B
:101060000C049C42CE469C4651D34ED055B1B8EBB1
:101070000E0364EB0C0404FA06F6CB401E43CC408E
:10108000C5E90064002150E7C2F1200320FA03F112
:101090000CFA02FC24FA03F394400C434FEA1C4878
:1010A00000FA02FE1FFA8CF7B3FBF8F008FB1031D0
:1010B000230C43EA014300FB07F1994208D91CEBDA
:1010C000030300F1FF362CD299422AD90238634437
:1010D0005B1AA4B2B3FBF8F108FB113344EA0344F2
:1010E00001FB07F3A34208D91CEB040401F1FF360E
:1010F00013D2A34211D902396444E41A41EA0041EF
:1011000039E70446F0E6084606E7C845AED2B9EB33
:10111000020E63EB070C0138A8E73146EDE7034602
:1011200099E73046D4E7D6467FE7634402384DE777
:101130000646234608460FE7023E634430E700BFF9
:10114000704700BF80B500AF174B184A1A60164BA6
:1011500003225A60144B00229A60134B0022DA607B
:10116000114B4FF400221A610F4B4FF440125A6199
:101170000D4B00221A760C4B00225A760A4B0022A5
:101180009A76094B0122DA76074B00221A77064B32
:1011900001225A77044808F08DFC0346002B01D049
:1011A00000F0C6FA00BF80BDA0000020006400402F
:1011B00080B500AF174B184A1A60164B03225A60CD
:1011C000144B00229A60134B0022DA60114B4FF44B
:1011D00000221A610F4B4FF440125A610D4B00224E
:1011E0001A760C4B00225A760A4B00229A76094B4B
:1011F0000022DA76074B00221A77064B01225A7733
:10120000044808F057FC0346002B01D000F090FA88
:1012100000BF80BDC80000200068004080B58CB0D1
:1012200000AF786007F11C0300221A605A609A60D0
:10123000DA601A617B681B685E4A93424DD15E4B4F
:101240001B6801335C4A13605B4B1B68012B0DD19B
:101250000023BB61594B1B6C584A43F00073136465
:10126000564B1B6C03F00073BB61BB6900237B61B1
:10127000524B1B6B514A43F0080313634F4B1B6BDC
:1012800003F008037B617B690323FB6102233B625C
:1012900000237B620323BB620923FB6207F11C036B
:1012A000194647480AF086FA00220121132009F066
:1012B000B5FC132009F0DEFC00220121142009F006
:1012C000ADFC142009F0D6FC00220021162009F004
:1012D000A5FC162009F0CEFC67E07B681B68394A44
:1012E000934262D100233B61344B1B6C334A43F081
:1012F00080631364314B1B6C03F080633B613B697B
:101300002D4B1B6801332C4A13602B4B1B68012BA0
:101310000DD10023FB60294B1B6C284A43F000735E
:101320001364264B1B6C03F00073FB60FB68002307
:10133000BB60224B1B6B214A43F0020313631F4B1C
:101340001B6B03F00203BB60BB686023FB610223DD
:101350003B6200237B620323BB620923FB6207F12C
:101360001C03194618480AF025FA002201213F20E3
:1013700009F054FC3F2009F07DFC002200214020B0
:1013800009F04CFC402009F075FC002201214120AD
:1013900009F044FC412009F06DFC002200214220AC
:1013A00009F03CFC422009F065FC00BF3037BD4627
:1013B00080BD00BF00640040F00000200038024003
:1013C000000C0240006800400004024080B582B07A
:1013D00000AF00237B601F4B1B6B1E4A43F40013BE
:1013E00013631C4B1B6B03F400137B607B680023AF
:1013F0003B60184B1B6B174A43F480031363154B78
:101400001B6B03F480033B603B68002201210C202E
:1014100009F004FC0C2009F02DFC002200213920E9
:1014200009F0FCFB392009F025FC002202214520AF
:1014300009F0F4FB452009F01DFC002202214620A2
:1014400009F0ECFB462009F015FC00BF0837BD464B
:1014500080BD00BF0038024080B58CB000AF07F1FE
:101460001C0300221A605A609A60DA601A61002335
:10147000BB61574B1B6B564A43F002031363544B3B
:101480001B6B03F00203BB61BB6900237B61504B04
:101490001B6B4F4A43F0400313634D4B1B6B03F030
:1014A00040037B617B6900233B61494B1B6B484ACE
:1014B00043F001031363464B1B6B03F001033B61D5
:1014C0003B690023FB60424B1B6B414A43F008031E
:1014D00013633F4B1B6B03F00803FB60FB680023A7
:1014E000BB603B4B1B6B3A4A43F004031363384B1E
:1014F0001B6B03F00403BB60BB6800237B60344BB1
:101500001B6B334A43F080031363314B1B6B03F0B7
:1015100080037B607B6800233B602D4B1B6B2C4A58
:1015200043F0200313632A4B1B6B03F020033B6043
:101530003B6801224FF4807126480AF01BFC01220F
:10154000102125480AF016FC0122012123480AF047
:1015500011FC4FF48073FB6101233B6200237B622B
:101560000323BB6207F11C0319461A480AF022F94B
:101570004023FB6102233B6200237B620023BB62AA
:101580000323FB6207F11C03194615480AF012F900
:101590001023FB6101233B6200237B620323BB62B8
:1015A00007F11C0319460C480AF004F90123FB61FA
:1015B00001233B6200237B620323BB6207F11C0310
:1015C000194606480AF0F6F800BF3037BD4680BD20
:1015D00000380240000802400000024000040240BF
:1015E0000014024080B500AF094B0A4A1A60084B4C
:1015F00003225A60064B4FF496729A6004480AF030
:10160000E5FB0346002B01D000F092F800BF80BD3F
:10161000F40000200030004080B500AF08F0B4F9BD
:1016200000F01AF8FFF718FFFFF7D0FEFFF7C0FD34
:1016300000F040FBFFF786FD00F09EFC00F0B0FBE1
:10164000FFF7D0FF00F0C4FC00F06CFC00F082F863
:1016500000F0E4FA00BFFDE780B594B000AF07F1F9
:10166000200330220021184617F077FB07F10C0306
:1016700000221A605A609A60DA601A610023BB6027
:10168000294B1B6C284A43F080531364264B1B6C78
:1016900003F08053BB60BB6800237B60234B1B6857
:1016A000224A43F480431360204B1B6803F48043B9
:1016B0007B607B6809233B624FF480337B620123AC
:1016C0007B630223BB634FF48003FB6306233B640D
:1016D000A8237B640223BB640423FB6407F120037B
:1016E00018460AF0FBFB0346002B01D000F020F85F
:1016F0000F23FB6002233B6100237B614FF4A05367
:10170000BB614FF48053FB6107F10C0305211846C0
:101710000AF010FF0346002B01D000F009F800BFCB
:101720005037BD4680BD00BF003802400070004009
:1017300080B400AF72B600BF00BFFDE780B483B0D5
:1017400000AF7860396000BF0C37BD465DF8047BA0
:101750007047000080B500AF174B184A1A60164B4F
:101760004FF482725A60144B00229A60124B00228E
:10177000DA60114B00221A610F4B00225A610E4BA6
:101780004FF400729A610C4B1822DA610A4B002266
:101790001A62094B00225A62074B00229A62064BDA
:1017A0000A22DA6204480BF04DF90346002B01D0FF
:1017B000FFF7BEFF00BF80BD0001002000300140E8
:1017C00080B58AB000AF786007F1140300221A6078
:1017D0005A609A60DA601A617B681B68284A9342F3
:1017E00049D100233B61274B5B6C264A43F480536D
:1017F0005364244B5B6C03F480533B613B690023CF
:10180000FB60204B1B6B1F4A43F0020313631D4B0D
:101810001B6B03F00203FB60FB680023BB60194BEA
:101820001B6B184A43F001031363164B1B6B03F049
:101830000103BB60BB6818237B610223BB610023EB
:10184000FB6103233B6205237B6207F11403194606
:101850000D4809F0AFFF80237B610223BB610023A9
:10186000FB6103233B6205237B6207F114031946E6
:10187000064809F09FFF00BF2837BD4680BD00BF66
:1018800000300140003802400004024000000240E5
:1018900080B483B000AF00237B60104B5B6C0F4AB9
:1018A00043F4804353640D4B5B6C03F480437B60D3
:1018B0007B6800233B60094B1B6C084A43F0805354
:1018C0001364064B1B6C03F080533B603B6800BF06
:1018D0000C37BD465DF8047B704700BF00380240FE
:1018E00080B400AF00BFFDE780B400AF00BFFDE7EC
:1018F00080B400AF00BFFDE780B400AF00BFFDE7DC
:1019000080B400AF00BFFDE780B400AF00BFBD46AC
:101910005DF8047B704780B400AF00BFBD465DF842
:10192000047B704780B400AF00BFBD465DF8047B08
:10193000704780B500AF08F079F800BF80BD0000A7
:1019400080B500AF024809F0CBFC00BF80BD00BFEE
:101950006C03002080B500AF024808F071FE00BFA4
:1019600080BD00BFA000002080B500AF024808F095
:1019700067FE00BF80BD00BFA000002080B500AFA3
:10198000024808F05DFE00BF80BD00BFA00000203F
:1019900080B500AF02480DF069FF00BF80BD00BFF9
:1019A0003402002080B500AF02480DF05FFF00BF99
:1019B00080BD00BF7C02002080B500AF02480CF063
:1019C0001BF900BF80BD00BFEC01002080B500AF57
:1019D000024809F085FC00BF80BD00BFCC03002099
:1019E00080B500AF024808F02BFE00BF80BD00BFED
:1019F000C800002080B500AF024808F021FE00BFFB
:101A000080BD00BFC800002080B500AF024808F0CC
:101A100017FE00BF80BD00BFC800002080B500AF2A
:101A2000024808F00DFE00BF80BD00BFC8000020C6
:101A300080B500AF024809F053FC00BF80BD00BF75
:101A40002C04002080B500AF024809F049FC00BF1B
:101A500080BD00BF0C03002080B500AF02480DF030
:101A600005FF00BF80BD00BFC402002080B400AFEE
:101A700001231846BD465DF8047B704780B582B0EF
:101A800000AF7860396017F0C7F9034616221A6074
:101A90004FF0FF3318460837BD4680BD80B582B091
:101AA00000AF78604FF0FF317868FFF7E7FF00BFC5
:101AB000FDE780B586B000AFF860B9607A600023BA
:101AC0007B610AE0AFF300800146BB685A1CBA6034
:101AD000CAB21A707B6901337B617A697B689A426A
:101AE000F0DB7B6818461837BD4680BD80B586B0F0
:101AF00000AFF860B9607A6000237B6109E0BB68E1
:101B00005A1CBA601B781846AFF300807B6901331A
:101B10007B617A697B689A42F1DB7B6818461837EB
:101B2000BD4680BD80B483B000AF78604FF0FF3316
:101B300018460C37BD465DF8047B704780B483B00F
:101B400000AF786039603B684FF400525A60002360
:101B500018460C37BD465DF8047B704780B483B0EF
:101B600000AF7860012318460C37BD465DF8047B52
:101B7000704780B485B000AFF860B9607A60002328
:101B800018461437BD465DF8047B704780B586B0B3
:101B900000AF7860144A154BD31A7B617B693B61B7
:101BA000134B1B68002B02D1114B124A1A60104BC9
:101BB0001A687B6813443A699A4207D217F02CF9E5
:101BC00003460C221A604FF0FF3309E0084B1B68F4
:101BD000FB60074B1A687B681344054A1360FB6877
:101BE00018461837BD4680BD0000022000040000E2
:101BF00058010020E812002080B400AF064BD3F853
:101C00008830054A43F47003C2F8883000BFBD46EF
:101C10005DF8047B704700BF00ED00E080B586B042
:101C200000AF07F1080300221A605A609A60DA6078
:101C30003B4600221A605A601D4B4FF080421A60EA
:101C40001B4B53225A601A4B00229A60184B4FF0DC
:101C5000FF32DA60164B00221A61154B00229A619E
:101C600013480BF063FC0346002B01D0FFF760FD27
:101C70004FF48053BB6007F1080319460C480CF081
:101C800083FA0346002B01D0FFF752FD00233B608F
:101C900000237B603B46194605480DF021FA0346B8
:101CA000002B01D0FFF744FD00BF1837BD4680BDB3
:101CB0005C01002080B58EB000AF07F12803002240
:101CC0001A605A609A60DA6007F1200300221A60F5
:101CD0005A603B1D00221A605A609A60DA601A61ED
:101CE0005A619A612C4B2D4A1A602B4B53225A6031
:101CF000294B00229A60284B0022DA60264B0022F2
:101D00001A61254B00229A6123480BF00FFC034611
:101D1000002B01D0FFF70CFD4FF48053BB6207F19D
:101D2000280319461C480CF02FFA0346002B01D05B
:101D3000FFF7FEFC18480BF011FD0346002B01D005
:101D4000FFF7F6FC00233B6200237B6207F12003D0
:101D5000194611480DF0C4F90346002B01D0FFF7D6
:101D6000E7FC60237B600023BB600023FB60002353
:101D70007B613B1D0822194607480CF02DF80346ED
:101D8000002B01D0FFF7D4FC034800F091F800BF0E
:101D90003837BD4680BD00BFA401002000080040C8
:101DA00080B582B000AF3B4600221A605A60154BE6
:101DB000154A1A60134B53225A60124B00229A6044
:101DC000104B40F2E732DA600E4B00229A610D4868
:101DD0000BF0ACFB0346002B01D0FFF7A9FC00235E
:101DE0003B6000237B603B46194606480DF078F9BE
:101DF0000346002B01D0FFF79BFC00BF0837BD4610
:101E000080BD00BFEC0100200010004080B586B00E
:101E100000AF78607B681B68B3F1804F0ED1002360
:101E20007B61204B1B6C1F4A43F0010313641D4B65
:101E30001B6C03F001037B617B692EE07B681B68F0
:101E4000194A93420ED100233B61164B1B6C154A75
:101E500043F004031364134B1B6C03F004033B6156
:101E60003B691AE07B681B68104A934215D1002336
:101E7000FB600C4B1B6C0B4A43F010031364094BC3
:101E80001B6C03F01003FB60FB680022022136206C
:101E900008F0C4FE362008F0EDFE00BF1837BD463E
:101EA00080BD00BF00380240000800400010004024
:101EB00080B588B000AF786007F10C0300221A608B
:101EC0005A609A60DA601A617B681B68124A934212
:101ED0001ED10023BB60114B1B6B104A43F008035B
:101EE00013630E4B1B6B03F00803BB60BB684FF41E
:101EF0008043FB6002233B6100237B610023BB61C5
:101F00000223FB6107F10C031946054809F052FC56
:101F100000BF2037BD4680BD0008004000380240A9
:101F2000000C024080B500AF114B124A1A60104BF2
:101F30004FF4E1325A600E4B00229A600C4B0022A3
:101F4000DA600B4B00221A61094B0C225A61084BD4
:101F500000229A61064B0022DA6105480DF0B2F9C1
:101F60000346002B01D0FFF7E3FB00BF80BD00BF9D
:101F7000340200200010014080B500AF114B124A1E
:101F80001A60104B114A5A600E4B4FF480529A60FF
:101F90000C4B0022DA600B4B4FF480621A61094B44
:101FA00004225A61074B00229A61064B0022DA6133
:101FB00004480DF087F90346002B01D0FFF7B8FB6A
:101FC00000BF80BD7C02002000480040A0860100C8
:101FD00080B500AF114B124A1A60104B4FF4E1323A
:101FE0005A600E4B00229A600C4B0022DA600B4BB9
:101FF00000221A61094B0C225A61084B00229A6197
:10200000064B0022DA6105480DF05CF90346002B0F
:1020100001D0FFF78DFB00BF80BD00BFC4020020D0
:102020000014014080B58EB000AF786007F1240342
:1020300000221A605A609A60DA601A617B681B6835
:10204000784A934240F0838000233B62764B5B6C7E
:10205000754A43F010035364734B5B6C03F0100339
:102060003B623B6A0023FB616F4B1B6B6E4A43F084
:10207000020313636C4B1B6B03F00203FB61FB69F0
:102080000023BB61684B1B6B674A43F0010313637A
:10209000654B1B6B03F00103BB61BB6980237B6253
:1020A0000223BB620023FB6203233B6307237B63A2
:1020B00007F1240319465D4809F07CFB4FF40073D7
:1020C0007B620223BB620023FB6203233B63072383
:1020D0007B6307F124031946554809F06BFB554B08
:1020E000554A1A60534B4FF000625A60514B4022E0
:1020F0009A60504B0022DA604E4B4FF480621A61B6
:102100004C4B00225A614B4B00229A61494B0022F2
:10211000DA61484B4FF400321A62464B00225A6291
:10212000444808F0CBFD0346002B01D0FFF700FB2D
:102130007B68404A9A633F4A7B689363002202218E
:10214000252008F06BFD252008F094FD17E17B6841
:102150001B683A4A934279D100237B61324B1B6C56
:10216000314A43F4802313642F4B1B6C03F4802308
:102170007B617B6900233B612B4B1B6B2A4A43F03D
:1021800004031363284B1B6B03F004033B613B699F
:102190004FF440637B620223BB620023FB62032394
:1021A0003B6307237B6307F124031946244809F0A6
:1021B00001FB244B244A1A60224B4FF000625A6004
:1021C000204B00229A601F4B0022DA601D4B4FF417
:1021D00080621A611B4B00225A611A4B00229A61DD
:1021E000184B4FF48072DA61164B4FF440321A628A
:1021F000144B00225A62134808F060FD0346002B7E
:1022000001D0FFF795FA7B680E4ADA630D4A7B68C6
:10221000936300220021272008F000FD272008F00A
:1022200029FDACE0001001400038024000040240EB
:10223000000002400C030020B86402400048004047
:10224000000802406C030020286002407B681B6885
:102250004D4A934240F093800023FB604B4B5B6CF4
:102260004A4A43F020035364484B5B6C03F020035D
:10227000FB60FB680023BB60444B1B6B434A43F08D
:1022800040031363414B1B6B03F04003BB60BB680F
:102290004FF484437B620223BB620023FB6203236F
:1022A0003B6308237B6307F124031946384809F090
:1022B00081FA384B384A1A60364B4FF020625A6028
:1022C000344B00229A60334B0022DA60314B4FF4DA
:1022D00080621A612F4B00225A612E4B00229A61B4
:1022E0002C4B0022DA612B4B4FF440321A62294BFF
:1022F00000225A62274808F0E1FC0346002B01D077
:10230000FFF716FA7B68234ADA63224A7B689363F5
:10231000224B234A1A60214B4FF020625A601F4B18
:1023200040229A601D4B0022DA601C4B4FF4806201
:102330001A611A4B00225A61184B00229A61174BFE
:102340000022DA61154B4FF400321A62134B00225F
:102350005A62124808F0B2FC0346002B01D0FFF786
:10236000E7F97B680D4A9A630C4A7B689363002205
:102370000021472008F052FC472008F07BFC00BFFA
:102380003837BD4680BD00BF001401400038024010
:1023900000180240CC030020286402402C040020D6
:1023A000A064024016F0D2BA08B50021FFF7FAFF88
:1023B00008BD00BF80B483B000AF786039603B686F
:1023C0001A687B681A607B6818460C37BD465DF852
:1023D000047B704780B483B000AF786039603B689D
:1023E0001A687B681A607B6818460C37BD465DF832
:1023F000047B704780B485B000AF78607B6893ED54
:10240000037A7B68D3ED037A67EE277AC7ED037A08
:102410007B6893ED027A7B68D3ED027A67EE277AC8
:10242000C7ED027A7B6893ED0C7A7B68D3ED0C7A6A
:1024300027EE277AD7ED037A37EE677AD7ED026A6F
:10244000D7ED037A76EEE77AC7EE276AF0EE667A82
:10245000B0EE670A1437BD465DF8047B704700BFD5
:1024600080B483B000AF78607B689B6918460C37F6
:10247000BD465DF8047B704780B483B000AF7860E0
:102480007B681B7F18460C37BD465DF8047B7047A0
:1024900080B483B000AF78607B6800221A7700BFF9
:1024A0000C37BD465DF8047B704700BF80B483B035
:1024B00000AF786039607B683A681A6200BF0C37F9
:1024C000BD465DF8047B704780B483B000AF786090
:1024D0007B68DB6B18460C37BD465DF8047B7047A4
:1024E000A0F10400F0E700BF80B483B000AF7860D3
:1024F0007B681B6C5A1C7B681A6400BF0C37BD4696
:102500005DF8047B704700BFA0F10400ECE700BF5A
:1025100080B485B000AFF860B9607A607B68002B4A
:1025200001D1002316E0FB68B3F84630DAB27B68CD
:102530001A70FB6893F844207B6801331A70FB68BB
:10254000B3F848207B680233D2B21A70BB6803220A
:102550001A60012318461437BD465DF8047B7047A6
:10256000A0F10400FFF7D4BF80B584B000AFF860DD
:10257000B9607A607B68002B02D0BB68082B01D061
:10258000002338E07B681B781B021AB27B6801339A
:102590001B781BB213431BB207EE903AF8EEE77AB2
:1025A000FB68C3ED0C7AFB681B6B1846FDF7C4FF94
:1025B00013A3D3E90023FEF717F802460B46104693
:1025C0001946FEF7E9FA0246FB681A637B68023394
:1025D0001B7803F00103DAB2FB6883F83420F86853
:1025E000FFF708FFF0EE407AFB68C3ED0E7AFB6858
:1025F00001221A77012318461037BD4680BD00BF5F
:10260000FCA9F1D24D62503F80B582B000AF786036
:102610000B4A7B681A600B4A7B685A607B680433FC
:10262000094A11461846FFF7D5FE7B68074A11464E
:102630001846FFF7BFFE7B6818460837BD4680BDC9
:10264000FC9C0108309D01084C9D0108489D010833
:10265000A0F10400D8E700BF80B582B000AF786079
:102660007868FFF7D1FF7868FFF79EFE7B68184611
:102670000837BD4680BD00BFA0F10400ECE700BFF5
:1026800010B5044612F05CF800236060237210BDA0
:1026900080B483B000AF78600B46FB70FB78002BF2
:1026A00005D07B689B780133DAB27B689A7000BFF3
:1026B0000C37BD465DF8047B704700BF80B483B023
:1026C00000AF78607B689A787B68DA7000BF0C375F
:1026D000BD465DF8047B704780B584B000AF78607C
:1026E0000B46FB707B689A787B68DB789A4214BF54
:1026F00001230023FB73FB78002B02D07868FFF7DF
:10270000DDFFFB7B18461037BD4680BD80B483B02B
:1027100000AF78607B681B6918460C37BD465DF8D2
:10272000047B704780B483B000AF78607B681B7D0A
:1027300018460C37BD465DF8047B704780B483B003
:1027400000AF78607B6800221A7500BF0C37BD4669
:102750005DF8047B704700BF80B483B000AF786041
:1027600039607B683A689A6100BF0C37BD465DF8F6
:10277000047B704780B483B000AF78607B689B6A4D
:1027800018460C37BD465DF8047B7047A0F1040085
:10279000F0E700BF80B483B000AF78607B68DB6A8D
:1027A0005A1C7B68DA6200BF0C37BD465DF8047BBB
:1027B000704700BFA0F10400ECE700BF80B483B015
:1027C00000AF78607B68303318460C37BD465DF843
:1027D000047B704780B483B000AF78607B6834338B
:1027E00018460C37BD465DF8047B704780B483B053
:1027F00000AF78607B685C3318460C37BD465DF8E7
:10280000047B704780B483B000AF78607B6880330E
:1028100018460C37BD465DF8047B704780B483B022
:1028200000AF78607B68983318460C37BD465DF87A
:10283000047B704780B483B000AF78607B687433EA
:1028400018460C37BD465DF8047B704780B584B0F0
:1028500000AFF860B9607A607B68002B02D0BB687B
:10286000082B01D000231CE0FB681B7A002B04D14D
:102870007968F86800F06AF80AE0FB681B7A012BB7
:1028800004D17968F86800F09FF801E0002308E0BF
:10289000FB681C331846FFF7F3FEFB6801221A752C
:1028A000012318461037BD4680BD00BF80B584B0F7
:1028B00000AFF860B9607A607B68002B01D100231B
:1028C00017E0FB681B7A002B04D17968F86800F0E8
:1028D00057F80AE0FB681B7A012B04D17968F86885
:1028E00000F010F801E0002303E0BB6808221A6042
:1028F000012318461037BD4680BD00BFA0F104007B
:10290000FFF7D4BF80B582B000AF786039607B68D4
:10291000DB6803F00103002B07D13968786800F009
:1029200043FB3B6801221A7006E03968786800F0C2
:10293000A7FC3B6802221A707B68DB685A1C7B6824
:10294000DA6000BF0837BD4680BD00BF80B582B0E9
:1029500000AF786039603B681B78012B04D139687F
:10296000786800F0CDFB07E03B681B78022B03D1B1
:102970003968786800F040FD00BF0837BD4680BD6B
:1029800080B582B000AF786039607B68DB6803F0A7
:102990000103002B07D13968786800F02FF83B68F5
:1029A00001221A7006E03968786800F0A1F93B68E6
:1029B00002221A707B68DB685A1C7B68DA6000BFF1
:1029C0000837BD4680BD00BF80B582B000AF7860DB
:1029D00039603B681B78012B04D13968786800F0B6
:1029E000C1F807E03B681B78022B03D1396878688F
:1029F00000F032FA00BF0837BD4680BD80B586B012
:102A000000AFF860B960BB687B61F868FFF7E2FE71
:102A10000346D3ED017AB7EE001AFFEE000AB0EEDE
:102A2000670A00F0B9FDF0EE407A9FED4D7A67EE4F
:102A3000877AFDEEE77AC7ED017A3B795AB27B6976
:102A40005A70F868FFF7C6FE0346D3ED027AB7EE78
:102A5000001AFFEE000AB0EE670A00F09DFDF0EEEE
:102A6000407A9FED3F7A67EE877AFDEEE77AC7ED11
:102A7000017A3B795AB27B699A70F868FFF7AAFE2F
:102A8000034619787A69D37861F30003D370F86844
:102A9000FFF7A0FE03461B7B03F00103D9B27A695E
:102AA000D37861F34103D370F868FFF793FE0346D0
:102AB0001B6903F00303D9B27A69D37861F3830306
:102AC000D370F868FFF792FE034601211846FFF71E
:102AD00003FE034619467A69D37861F30413D37071
:102AE000F868FFF783FE03461B7803F00103D9B2B1
:102AF0007A69D37861F34513D370F868FFF776FEEF
:102B000003465B7803F00303D9B27A69D37861F3A3
:102B10008713D370F868FFF78DFE034619787A693A
:102B2000137961F300031371F868FFF783FE03461E
:102B300059787A69137961F341031371F868FFF7E3
:102B400079FE03469B7803F00303D9B27A691379BF
:102B500061F38303137100BF1837BD4680BD00BF0A
:102B60000000FE4290B52DED028B85B000AF78607D
:102B700039603B68FB60FB6893F9013007EE903ADF
:102B8000F8EEE77ADFED596A87EEA67AB7EE001A1B
:102B9000FFEE000AB0EE470A00F0FEFCB0EE408AFD
:102BA0007868FFF717FE034683ED018AFB6893F907
:102BB000023007EE903AF8EEE77ADFED4C6A87EEE6
:102BC000A67AB7EE001AFFEE000AB0EE470A00F050
:102BD000E3FCB0EE408A7868FFF7FCFD034683ED26
:102BE000028AFB68DB7803F00103DBB2002B14BF21
:102BF00001230023DCB27868FFF7ECFD0346224690
:102C00001A70FB68DB78C3F34003DBB21C467868BC
:102C1000FFF7E0FD034622461A73FB68DB78C3F337
:102C20008103DBB21C467868FFF7D4FD03461C61C4
:102C30007868FFF7DBFD03461A46FB68DB7803F094
:102C40001003DBB2002B14BF01230023DBB21946B3
:102C50001046FFF71DFDFB68DB78C3F34013DBB2C2
:102C60001C467868FFF7C2FD034622461A70FB68CF
:102C7000DB78C3F38113DBB21C467868FFF7B6FD3F
:102C8000034622465A70FB681B7903F00103DBB24E
:102C9000002B14BF01230023DCB27868FFF7CAFDC4
:102CA000034622461A70FB681B7903F00203DBB26D
:102CB000002B14BF01230023DCB27868FFF7BAFDB4
:102CC000034622465A70FB681B79C3F38103DBB2CB
:102CD0001C467868FFF7AEFD034622469A7000BF97
:102CE0001437BD46BDEC028B90BD00BF0000FE4214
:102CF00090B587B000AFF860B960BB687B61F868D9
:102D0000FFF780FD0346DA787B695A70F868FFF7B1
:102D100079FD034693ED047AF2EE046AC7EE267A53
:102D2000FCEEE77AC7ED017A3B79DAB27B699A70FB
:102D3000F868FFF767FD0346D3ED037AFCEEE77A08
:102D4000C7ED017A3B79DAB27B69DA70F868FFF790
:102D500059FD0346D3ED017A9FED3C1ADFED3C0AA5
:102D6000B0EE670A00F018FCF0EE407A9FED397A79
:102D700067EE877AFCEEE77A17EE903A9BB2C3F3E0
:102D80000B039AB27B69D1B2002001431971120A78
:102D900092B202F00F0202F00F005A7922F00F02F5
:102DA000114602460A435A71F868FFF72BFD0346A5
:102DB000D3ED027AFCEEE77A17EE903A9BB2C3F3BA
:102DC00009039AB27B6902F00F010C01597901F0F5
:102DD0000F010846214601435971120992B202F0CF
:102DE0003F0202F03F009A7922F03F02114602466C
:102DF0000A439A71F868FFF705FD034659787A6926
:102E0000937961F386139371F868FFF7FBFC03462F
:102E100099787A69937961F3C7139371F868FFF72A
:102E2000F1FC034619787A69D37961F30003D37111
:102E3000F868FFF7E7FC0346197D7A69D37961F3F7
:102E40004103D37100BF1C37BD4690BD0000204236
:102E5000000000000000C84290B52DED028B85B047
:102E600000AF786039603B68FB60FB685C7878682D
:102E7000FFF7C8FC03462246DA70FB689B781A46C7
:102E800013469B0013445B0007EE903AB8EEE78AC6
:102E90007868FFF7B7FC034683ED048AFB68DB78AC
:102EA00007EE903AB8EE678A7868FFF7ABFC034606
:102EB00083ED038AFB681A795B7903F00F031B0229
:102EC00013439BB21846FDF725FB4FF00002344B2D
:102ED000FDF7B4FC02460B4610461946FDF75CFEB2
:102EE00004467868FFF78EFC03465C60FB685A79FD
:102EF0001209D2B29B7903F03F031B0113439BB22B
:102F000007EE903AB8EE678A7868FFF77BFC0346D5
:102F100083ED028AFB689B7903F04003DBB2002B50
:102F200014BF01230023DCB27868FFF76BFC034673
:102F300022465A70FB689B7923F07F03DBB2002B9B
:102F400014BF01230023DCB27868FFF75BFC034663
:102F500022469A70FB68DB7903F00103DBB2002B99
:102F600014BF01230023DCB27868FFF74BFC034653
:102F700022461A70FB68DB7903F00203DBB2002BF8
:102F800014BF01230023DCB27868FFF73BFC034643
:102F900022461A7500BF1437BD46BDEC028B90BDAA
:102FA000000059400000000080B584B000AF786098
:102FB00039603B68FB607868FFF700FC034659788E
:102FC000FA68537861F3000353707868FFF702FCE6
:102FD00003461B7D03F00303D9B2FA68537861F30B
:102FE000420353707868FFF7F5FB0346D3ED097A87
:102FF0009FED417A67EE877A17EE900AFDF79CFA0B
:103000003BA3D3E90023FDF719FC02460B4610460B
:103010001946FDF799FD03465AB2FB689A70786825
:10302000FFF7D8FB0346D3ED077A9FED337A67EEBF
:10303000877A17EE900AFDF77FFA2DA3D3E90023D4
:10304000FDF7FCFB02460B4610461946FDF77CFDDA
:1030500003465AB2FB68DA707868FFF7BBFB034699
:10306000D3ED087A9FED247A67EE877A17EE900AFF
:10307000FDF762FA1EA3D3E90023FDF7DFFB02464A
:103080000B4610461946FDF75FFD03465AB2FB6832
:103090001A717868FFF79EFB0346D3ED067A9FED21
:1030A000167A67EE877A17EE900AFDF745FA10A3B5
:1030B000D3E90023FDF7C2FB02460B461046194632
:1030C000FDF742FD03465AB2FB685A717868FFF774
:1030D000A5FB03461A78FB689A717868FFF79EFB98
:1030E00003465A78FB68DA7100BF1037BD4680BDD1
:1030F000182D4454FB2109400000FE42000000004E
:1031000090B585B000AF786039603B68FB60FB68C4
:103110005B7803F00103DBB2002B14BF0123002313
:10312000DCB27868FFF74AFB034622465A70FB6818
:103130005B78C3F34103DBB21C467868FFF74AFBB8
:10314000034622461A75FB6893F902301846FDF7CC
:10315000E1F947A3D3E90023FDF746FA02460B46FF
:103160001046194644A3D3E90023FDF767FB024646
:103170000B4610461946FDF70FFD04467868FFF729
:1031800029FB03465C62FB6893F903301846FDF7A0
:10319000C1F937A3D3E90023FDF726FA02460B460F
:1031A0001046194634A3D3E90023FDF747FB024636
:1031B0000B4610461946FDF7EFFC04467868FFF70A
:1031C00009FB0346DC61FB6893F904301846FDF700
:1031D000A1F927A3D3E90023FDF706FA02460B461F
:1031E0001046194624A3D3E90023FDF727FB024626
:1031F0000B4610461946FDF7CFFC04467868FFF7EA
:10320000E9FA03461C62FB6893F905301846FDF79E
:1032100081F917A3D3E90023FDF7E6F902460B462F
:103220001046194614A3D3E90023FDF707FB024615
:103230000B4610461946FDF7AFFC04467868FFF7C9
:10324000C9FA03469C61FB689C797868FFF7E6FA47
:10325000034622461A70FB68DC797868FFF7DEFACD
:10326000034622465A7000BF1437BD4690BD00BFCA
:10327000182D4454FB2109400000000000C05F40AD
:1032800080B586B000AFF860B960BB687B61F86854
:10329000FFF7ACFA034619797A69537861F30003B2
:1032A0005370F868FFF7A2FA03465B7903F0030353
:1032B000D9B27A69537861F342035370F868FFF723
:1032C00095FA0346D3ED027A9FED497A27EE877A85
:1032D000DFED486AC7EE267AFDEEE77AC7ED017AA0
:1032E0003B795AB27B699A70F868FFF77FFA034618
:1032F000D3ED037A9FED3E7A27EE877ADFED3D6AC4
:10330000C7EE267AFDEEE77AC7ED017A3B795AB22D
:103310007B69DA70F868FFF769FA0346D3ED047A3F
:103320009FED337A67EE877A17EE900AFDF704F97E
:103330002DA3D3E90023FDF781FA02460B46104680
:103340001946FDF701FC03465AB27B691A71F86809
:10335000FFF74CFA0346D3ED057A9FED257A67EE29
:10336000877A17EE900AFDF7E7F81FA3D3E9002349
:10337000FDF764FA02460B4610461946FDF7E4FBDA
:1033800003465AB27B695A71F868FFF753FA03464D
:103390001B7903F00303D9B27A69937961F30103CE
:1033A0009371F868FFF746FA0346D3ED027A9FED72
:1033B000107A67EE877A17EE900AFDF7BDF80AA338
:1033C000D3E90023FDF73AFA02460B4610461946A8
:1033D000FDF7BAFB03465AB27B69DA7100BF1837B2
:1033E000BD4680BDAFF30080182D4454FB21094039
:1033F0000000FE420000524490B52DED028B85B0D6
:1034000000AF786039603B68FB60FB685B7803F075
:103410000103DBB2002B14BF01230023DCB2786868
:10342000FFF7E4F9034622461A71FB685B78C3F3A1
:103430004103DBB21C467868FFF7D8F90346224601
:103440005A71FB6893F9023007EE903AF8EEE77A8A
:103450009FED4F7A67EE877A9FED4E7A87EE878AE7
:103460007868FFF7C3F9034683ED028AFB6893F996
:10347000033007EE903AF8EEE77A9FED457A67EE73
:10348000877A9FED447A87EE878A7868FFF7AEF9EE
:10349000034683ED038AFB6893F904301846FDF771
:1034A00039F837A3D3E90023FDF79EF802460B460F
:1034B0001046194634A3D3E90023FDF7BFF90246AD
:1034C0000B4610461946FDF767FB04467868FFF780
:1034D0008DF903461C61FB6893F905301846FDF72A
:1034E00019F827A3D3E90023FDF77EF802460B461F
:1034F0001046194624A3D3E90023FDF79FF902469D
:103500000B4610461946FDF747FB04467868FFF75F
:103510006DF903465C61FB689B79C3F30103DBB281
:103520001C467868FFF786F9034622461A71FB6845
:1035300093F907301846FCF7EDFF11A3D3E90023F8
:10354000FDF752F802460B46104619460EA3D3E982
:103550000023FDF773F902460B4610461946FDF7A6
:103560001BFB04467868FFF765F903469C6000BFC3
:103570001437BD46BDEC028B90BD00BFAFF3008099
:10358000182D4454FB2109400000000000C05F409A
:10359000000052440000FE42F4EEC10AF1EE10FABF
:1035A00005DBF0EE417AB0EE601AF0EE670AB4EE99
:1035B000C01AF1EE10FA07D4F4EEC00AF1EE10FAD8
:1035C000C8BFB0EE600A7047B0EE410A704700BF56
:1035D00080B582B000AF78600B4A7B681A600B4AF6
:1035E0007B685A607B680433094A11461846FEF727
:1035F000F1FE7B68074A11461846FEF7DBFE7B6842
:1036000018460837BD4680BDA89D0108DC9D01080D
:10361000F89D0108F49D0108A0F10400D8E700BF5F
:1036200080B582B000AF78607868FFF7D1FF786826
:10363000FEF7BAFE7B6818460837BD4680BD00BF5E
:10364000A0F10400ECE700BF80B483B000AF87EDC9
:10365000010AD7ED017AF0EEE77AB0EE670A0C378F
:10366000BD465DF8047B704780B582B000AF7860DE
:103670007B681B68002B09D17B68052283F85C20DE
:10368000002316E07B68042283F85C207B681B68BB
:103690000021184611F078FB0346002B14BF0123CC
:1036A0000023DBB2002BEDD17B68012283F85C2084
:1036B000012318460837BD4680BD00BF80B582B0E3
:1036C00000AF78607B6893F85C30002B0AD1786893
:1036D000FFF7CAFF034683F00103DBB2002B01D0E2
:1036E00000231DE07B6893F85C30032B01D9002395
:1036F00016E0786800F018F87B6893F85C30012BCE
:1037000004D07B6893F85C30022B02D1786800F01B
:103710001FF8786800F09AF8786800F013F9012330
:1037200018460837BD4680BD80B582B000AF7860CE
:103730007B6818687B6803F108017B6803F1140259
:103740007B68203311F04CFB00BF0837BD4680BDBD
:1037500080B584B000AF78607B681A6E7B685B6E62
:103760009A426AD27B68D3ED0A7AB0EE670AFFF715
:103770006BFF87ED020A0023FB6051E07A68FB686B
:1037800004339B0013440433D3ED007A97ED027A9F
:10379000B4EEE77AF1EE10FA3ED47A68FB680433AF
:1037A0009B001344043393ED007AD7ED027AF1EED7
:1037B000677AB4EEE77AF1EE10FA2DD47A68FB68F6
:1037C0000A339B001344043393ED007A7A68FB6854
:1037D00004339B0013440433D3ED006A7A68FB681A
:1037E0000A339B0013440433D3ED007A36EEE76AC4
:1037F0007B681B6E013307EE903AF8EE676AC6EEFF
:10380000267A77EE277A7A68FB680A339B0013449E
:103810000433C3ED007A00E000BFFB680133FB60B6
:10382000FB68022BAAD97B68022283F85C207B68A4
:103830001B6E5A1C7B681A6603E07B68032283F8C0
:103840005C2000BF1037BD4680BD00BF80B586B08C
:1038500000AF78607B68D3ED097AB0EE670AFFF7B6
:10386000F3FE87ED030A00237B6140E07A687B6901
:1038700002339B001344D3ED007A97ED037AB4EE44
:10388000E77AF1EE10FA07D57A687B690E339B0070
:103890001344FA681A6027E07A687B6902339B0058
:1038A000134493ED007AD7ED037AF1EE677AB4EE24
:1038B000E77AF1EE10FA0BD5D7ED037AF1EE677ADD
:1038C0007A687B690E339B001344C3ED007A0BE0EA
:1038D0007A687B6902339B0013441A6879687B69B4
:1038E0000E339B000B441A607B6901337B617B695B
:1038F000022BBBD900233B611CE07A683B6904338F
:103900009B001344043393ED007A7A683B690A33D1
:103910009B0013440433D3ED007A77EE677A7A681C
:103920003B6910339B0013440433C3ED007A3B69B9
:1039300001333B613B69022BDFD900BF00BF183761
:10394000BD4680BD80B582B000AF78607B685B68A3
:10395000002B05D17B68052283F85C20002316E04C
:103960007B685B681B6808331B687A6850687A68F4
:1039700002F138017A68443298477B685B681A46DE
:103980007B685033194610460DF002F901231846A2
:103990000837BD4680BD00BF14F0D0BF08B5002178
:1039A000FFF7FAFF08BD00BF10B400240122C0E9F0
:1039B000001402725DF8044B704700BF80B483B0FE
:1039C00000AF786039603B681A687B681A607B6872
:1039D00018460C37BD465DF8047B704780B483B051
:1039E00000AF786039603B681A687B681A607B6852
:1039F00018460C37BD465DF8047B704780B584B02F
:103A000000AFF860B9607A603B60FB682F4A1146EE
:103A10001846FFF7D3FFFB6804332D4A11461846BA
:103A2000FFF7DCFF2B4AFB681A602B4AFB685A60E1
:103A3000FB682A4A9A60FB68294ADA60FB68294ACF
:103A40001A61FB684FF07C525A61FB684FF489722F
:103A50009A61FB6800221A77FB6800221A62FB68F1
:103A6000243339681846FFF79FFFFB684FF00002C8
:103A70001A63FB68012283F83420FB684FF00002D0
:103A80009A63FB6840F21112DA63FB6800221A6441
:103A9000FB68002283F84420FB68002283F845205D
:103AA000FB680022A3F84620FB680022A3F8482008
:103AB000B968F86800F018F87968F86800F022F83A
:103AC000FB6818461037BD4680BD00BF489D010801
:103AD0004C9D0108FC9C0108309D01080000D0416C
:103AE00000009041CDCC4C3E80B483B000AF7860F4
:103AF00039607B683A68DA6300BF0C37BD465DF811
:103B0000047B704780B483B000AF786039607B6815
:103B10003A689A6100BF0C37BD465DF8047B704778
:103B200080B582B000AF786039607B68012B11D11D
:103B30003B684FF6FF7293420CD10A234FF489720F
:103B400040F211110548FFF759FF054A054903489E
:103B500014F03EF800BF0837BD4680BD8C0400203D
:103B6000000000200926000880B500AF4FF6FF7165
:103B70000120FFF7D5FF80BD80B400AF72B600BF53
:103B800000BFFDE780B483B000AF78607B6800229F
:103B90001A707B6818460C37BD465DF8047B704789
:103BA00080B582B000AF78607B6801331846FFF7BC
:103BB000E9FF7B6818460837BD4680BD80B483B0F6
:103BC00000AF78607B6800221A707B684FF00002BB
:103BD0005A607B684FF000029A607B6800221A737B
:103BE0007B6800221A617B6818460C37BD465DF879
:103BF000047B704780B483B000AF78607B6800229C
:103C00001A707B684FF000025A607B684FF0000228
:103C10009A607B684FF00002DA607B684FF0000228
:103C20001A617B6818460C37BD465DF8047B704707
:103C300080B582B000AF78607B681846FFF7BEFFA2
:103C40007B6814331846FFF7D5FF7B6818460837A2
:103C5000BD4680BD80B483B000AF78607B68002231
:103C60001A707B6800225A707B6800229A707B6809
:103C70000022DA707B6818460C37BD465DF8047B7D
:103C8000704700BF80B483B000AF78607B680022CB
:103C90001A707B6800225A707B6800229A707B68D9
:103CA0004FF000025A607B684FF000029A607B6818
:103CB0004FF00002DA607B684FF000021A617B6807
:103CC00018460C37BD465DF8047B704780B582B05E
:103CD00000AF78607B681846FFF7BCFF7B68043351
:103CE0001846FFF7CFFF7B6818460837BD4680BDF2
:103CF00080B483B000AF78607B6800221A707B6864
:103D000000225A707B6800229A707B6818460C3734
:103D1000BD465DF8047B704780B483B000AF786027
:103D20007B6800221A707B684FF000025A607B6843
:103D300018460C37BD465DF8047B704780B582B0ED
:103D400000AF78607B681846FFF7D2FF7B680433CA
:103D50001846FFF7E1FF7B6818460837BD4680BD6F
:103D600080B483B000AF78607B6800221A707B68F3
:103D700000225A707B6800229A707B680122DA70F8
:103D80007B684FF000025A607B684FF000029A6037
:103D90007B684FF00002DA607B684FF000021A6126
:103DA0007B6800221A757B6818460C37BD465DF8A3
:103DB000047B704780B582B000AF78607B6818469E
:103DC000FFF7CEFF7B6818460837BD4680BD00BFB1
:103DD00080B483B000AF78607B6800221A707B6883
:103DE00000225A707B6818460C37BD465DF8047B8C
:103DF000704700BF80B582B000AF78607B6818461E
:103E0000FFF7E6FF7B6818460837BD4680BD00BF58
:103E100080B584B000AFF8607A603B600B46FB72FF
:103E2000FB68364A11461846FFF7C8FDFB680433A5
:103E3000334A11461846FFF7D1FD324AFB681A6033
:103E4000314AFB685A60FB6800221A72FB68002244
:103E5000DA60FB684FF489721A61FB6800221A75F8
:103E6000FB6800229A61FB681C33B9691846FFF7AA
:103E70009BFDFB6840F211129A62FB680022DA6235
:103E8000FB6830331846FFF78BFEFB683433184667
:103E9000FFF7CEFEFB685C331846FFF717FFFB68A1
:103EA00074331846FFF74AFFFB6880331846FFF764
:103EB00081FFFB6898331846FFF79CFFFB68FA7A8E
:103EC0001A72FB681B7A002B06D1FB687A689A622B
:103ED000FB683A681A610CE0FB681B7A012B06D17B
:103EE000FB683A689A62FB687A681A6101E0FFF73A
:103EF00043FEFB6818461037BD4680BDF49D01089F
:103F0000F89D0108A89D0108DC9D010880B584B0DA
:103F100002AF786039607B68012B11D13B684FF6A6
:103F2000FF7293420CD1052300930223012200214A
:103F30000548FFF76DFF054A0549034813F048FEA1
:103F400000BF0837BD4680BDD80400200000002017
:103F5000D135000880B500AF4FF6FF710120FFF7A3
:103F6000D5FF80BD044A026080ED010AC0ED020A5F
:103F700080ED031A704700BF709E0108034A02607B
:103F800080ED010AC0ED020A704700BF609E010883
:103F90000246043110B40346044C42F8044B03C9F2
:103FA0005DF8044B82E8030018467047609E0108E4
:103FB00010B50446043000F02FF80023236120469A
:103FC00010BD00BF38B504460023043063600D46C1
:103FD000C0E90133C0E90333FFF7EAFF294604F1E2
:103FE0001800FFF7D5FF9FED061A04F12400F0EE4C
:103FF000410AB0EE410AFFF7B5FF204638BD00BFC9
:104000000000000010B504460EF07EFA201D00F0FE
:1040100019F8204610BD00BF10B5054A0023C0E9BD
:1040200000230446836000F013F8204610BD00BF53
:10403000509E0108704700BF10B50446FEF7B4F962
:10404000204610BD10B5044600F006F8204610BD0D
:10405000C0E90100704700BF70B584680646051DC1
:10406000AC420AD0204600F00FF864680028F7D070
:1040700003685B689847AC42F4D12846FFF7E8FF35
:104080000023336170BD00BF704700BF704700BFA1
:1040900010B50446FEF788F9204610BD704700BFF2
:1040A00010B50446FEF780F9204610BD80B582B0F9
:1040B00000AF786039607B68012B19D13B684FF6FF
:1040C000FF72934214D1DFED0C0A9FED0B0A0B48EF
:1040D000FFF754FF0A4A0B49084813F079FD0749D6
:1040E0000948FFF76FFF064A0849074813F070FDBB
:1040F00000BF0837BD4680BD0000000074050020E9
:10410000000000208D4000088005002005400008C8
:1041100080B500AF4FF6FF710120FFF7C7FF80BDEC
:1041200010B50446043000F0A7F8002323612046B0
:1041300010BD00BF10B5044B044640F8043BFFF728
:10414000EFFF204610BD00BFA89E010810B5044B2C
:10415000044640F8043B00F0A5F8204610BD00BF1F
:10416000A89E010810B50446FFF7F0FF2046FEF7B1
:104170001BF9204610BD00BF10B50446FFF7DAFF5B
:104180000023044A2384C4E90633C4E909332260C6
:10419000204610BD94A3010810B50446043000F079
:1041A00087F800232361204610BD00BF10B5044BE3
:1041B000044640F8043BFFF7EFFF204610BD00BF68
:1041C000809E010810B5044B044640F8043B00F003
:1041D00085F8204610BD00BF809E010810B504463A
:1041E000FFF7F0FF2046FEF7DFF8204610BD00BFC6
:1041F00010B50446FFF7DAFF0023044AA383C4E99D
:1042000008332260A361204610BD00BFACA30108A3
:1042100010B50446FFF78EFF0B4A0C4921600023BE
:10422000C4E90A33C4E90C33C4E90E33C4E91233D8
:10423000C4E91432A3612377236284F82430236411
:1042400084F84430204610BD5D45010804A40108EF
:1042500010B50446FFF7AAFF0023064AA383C4E96A
:104260000833C4E90A332260A36184F83030204661
:1042700010BD00BF1CA4010810B5054A0023C0E909
:1042800000230446836000F02FF8204610BD00BFD5
:10429000C09E0108704700BF10B50446FEF784F8C1
:1042A000204610BD10B5044600F022F8204610BD8F
:1042B00010B5054A0023C0E900230446836000F0DE
:1042C0002FF8204610BD00BF989E0108704700BF20
:1042D00010B50446FEF768F8204610BD10B5044638
:1042E00000F022F8204610BDC0E90100704700BF71
:1042F00070B584680646051DAC420AD0204600F021
:104300002BF864680028F7D003685B689847AC42D4
:10431000F4D12846FFF7E8FF0023336170BD00BFEA
:10432000C0E90100704700BF70B584680646051DEE
:10433000AC420AD0204600F011F864680028F7D09B
:1043400003685B689847AC42F4D12846FFF7E8FF62
:104350000023336170BD00BF704700BF704700BFCE
:1043600080B582B000AF786039607B68012B6DD179
:104370003B684FF6FF72934268D1364B18462C23A8
:104380001A46002114F0E9FC3248FFF7F5FE324AE4
:104390003249304813F01CFC314B184628231A468A
:1043A000002114F0DAFC2E48FFF722FF2A4A2D499B
:1043B0002B4813F00DFC2C4B18462C231A460021D9
:1043C00014F0CBFC2848FFF7D7FE234A23492648A0
:1043D00013F0FEFB254B184628231A46002114F043
:1043E000BCFC2248FFF704FF1B4A1E491F4813F07C
:1043F000EFFB1F4B184658231A46002114F0ADFC62
:104400001B48FFF705FF144A1A49194813F0E0FB4F
:10441000194B184634231A46002114F09EFC164806
:10442000FFF716FF0C4A1549134813F0D1FB144B44
:10443000184658231A46002114F08FFC1048FFF745
:10444000E7FE054A0B490E4813F0C2FB00BF0837D0
:10445000BD4680BDB4050020000000208544000852
:10446000E0050020AD4400080806002034060020C6
:104470005C060020E1400108B40600200D4601085A
:10448000E806002010B5034B03600446FFF75EFE0C
:10449000204610BD94A3010810B50446FFF7F2FFB3
:1044A0002046FDF781FF204610BD00BF10B5034B2D
:1044B00003600446FFF786FE204610BDACA301084A
:1044C00010B50446FFF7F2FF2046FDF76DFF2046CA
:1044D00010BD00BF80B500AF4FF6FF710120FFF7A0
:1044E0003FFF80BD80B483B000AF78607B681B7CE9
:1044F00018460C37BD465DF8047B704780B483B026
:1045000000AF78607B685B7C18460C37BD465DF871
:10451000047B704780B483B000AF78600C4A7B683E
:104520001A607B6800225A607B6800229A607B6870
:104530000022DA607B6800221A747B6800225A74B9
:104540007B6818460C37BD465DF8047B704700BF9A
:10455000E49E010880B483B000AF78607B680022DD
:104560001A707B6800225A707B684FF000025A6014
:104570007B6850221A817B683C225A817B68182212
:104580009A817B686422DA817B6818460C37BD46C5
:104590005DF8047B704700BFB0B582B000AF7860B3
:1045A00039607B681846FFF7B5FF574A7B681A6089
:1045B0007B68002283F828207B68002283F829206A
:1045C0007B68002283F82A207B682C3300221A6043
:1045D0005A609A607B6838331846FFF7BBFF7B68E8
:1045E000002283F848207B68002283F849207B68FA
:1045F000002283F84A207B680022DA647B6850330B
:1046000000221A605A609A607B685C3300221A604C
:104610005A609A607B68683300221A605A609A6018
:10462000DA607B68783300221A605A609A60DA6038
:104630007B68883300221A605A609A60DA607B686F
:10464000002283F898207B680022C3F89C207B68B6
:10465000002283F8A0207B68002283F8A1207B68D9
:10466000002283F8A2207B68A43300221A605A60DB
:104670009A60DA607B68B43300221A605A609A60EC
:10468000DA607B684FF00002C3F8C4207B68002228
:1046900083F8C8207B684FF00002C3F8CC207B6809
:1046A0000022C3F8D0207B68D43300221A605A60FD
:1046B0009A60DA607B680022C3F8E4207B680022FD
:1046C000C3F8E8207B680022C3F8EC207B68002256
:1046D000C3F8F0207B680022C3F8F4207B68F8332D
:1046E00000221A605A609A60DA607B683A6803F1C7
:1046F000140415460FCD0FC42B6823607B68184641
:104700000837BD46B0BD00BF64A2010880B483B0C5
:1047100000AF7860044A7B681A607B6818460C37E3
:10472000BD465DF8047B704764A2010880B483B085
:1047300000AF78607B684FF000021A607B684FF032
:1047400000025A607B6800221A727B680022DA60DD
:104750007B6800221A747B6800225A617B681846C5
:104760000C37BD465DF8047B704700BF80B483B052
:1047700000AF78607B6818460C37BD465DF8047B57
:10478000704700BF80B483B000AF78607B680022C0
:104790001A707B6800225A707B6800229A707B68CE
:1047A00018460C37BD465DF8047B704780B483B073
:1047B00000AF78607B6818460C37BD465DF8047B17
:1047C000704700BF80B483B000AF78607B68002280
:1047D0001A707B6800225A707B6800229A707B688E
:1047E0000022DA707B6818460C37BD465DF8047B02
:1047F000704700BF80B483B000AF78607B68184614
:104800000C37BD465DF8047B704700BF80B483B0B1
:1048100000AF78607B6800221A707B6818460C37FE
:10482000BD465DF8047B704780B483B000AF78600C
:104830007B6818460C37BD465DF8047B704700BFA7
:1048400080B485B000AFF860B9607A60FB68BA6880
:104850001A60FB687A685A60FB6818461437BD46D0
:104860005DF8047B704700BFF0B583B000AF78609F
:104870007B681846FFF74EFE2B4A7B681A607B6800
:1048800000229A747B680022DA747B6800221A7511
:104890007B6800229A617B680022DA617B680022D3
:1048A0001A627B6800225A627B6800229A627B68E7
:1048B0000022DA627B6800221A637B6800225A6356
:1048C0007B6800229A637B683C3300221A605A603E
:1048D0009A60DA607B680022DA647B6800221A65DD
:1048E0007B6800225A657B6800229A657B680022FB
:1048F000DA657B6803F16004062600220021204669
:10490000FFF79EFF04F10805741E06E00022002157
:104910002846FFF795FF013C0835002CF6DA7B6846
:1049200018460C37BD46F0BD94A2010880B483B090
:1049300000AF7860044A7B681A607B6818460C37C1
:10494000BD465DF8047B704794A2010880B582B033
:1049500000AF786039607B68012B35D13B684FF63A
:10496000FF72934230D11A48FFF77EFF194A1A4965
:10497000174813F02DF919491948FFF70DFE154A8C
:104980001849174813F024F91748FFF7FBFE114A9E
:104990001649154813F01CF91548FFF7C7FE0D4AD4
:1049A0001449134813F014F91348FFF70BFF094A91
:1049B0001249114813F00CF91148FFF727FF054A77
:1049C00010490F4813F004F900BF0837BD4680BDF9
:1049D00040070020000000202D490008C89E010863
:1049E000D80700200D470008E0080020AD47000868
:1049F000E40800206D470008FC080020F547000887
:104A0000000900202948000880B500AF4FF6FF716B
:104A10000120FFF79BFF80BD90B583B000AF7860A9
:104A200039607B6800221A607B6800225A607B68CC
:104A3000083300221A605A609A607B68143300229F
:104A40001A605A609A607B684FF000021A627B68B5
:104A5000384A5A627B68384A9A627B682C33002253
:104A60001A605A609A607B68383300221A605A6074
:104A70009A607B68443300221A605A609A607B68AF
:104A8000503300221A605A609A607B68002283F8D3
:104A90005C207B6800221A667B6864225A663B6849
:104AA0001A687B685A663B68D3ED017AB0EE670AF4
:104AB000FEF7CAFDF0EE407A7B68C3ED097A3B68E9
:104AC000D3ED027AB0EE670AFEF7BEFDF0EE407A53
:104AD0007B68C3ED0A7A4C20FEF760FF03461C4654
:104AE0003B6899693B68DA693B681B6A204610F0AD
:104AF0002FF87B681C602C20FEF750FF03461C46F5
:104B00003B68D3ED037A3B6893ED047A3B68D3EDC1
:104B1000056AB0EE661AF0EE470AB0EE670A204664
:104B20000CF0CEF87B685C607B6818460C37BD469D
:104B300090BD00BF00002041CDCCCC3D80B582B0FF
:104B400000AF78607B681B68002B0BD07B681B680C
:104B5000002B04D01A6804321268184690477B680C
:104B600000221A607B685B68002B0BD07B685B6857
:104B7000002B04D01A6804321268184690477B68EC
:104B800000225A607B6818460837BD4680BD00BFCA
:104B900080B582B000AF786039607B68012B0DD1A1
:104BA0003B684FF6FF72934208D106490648FFF76B
:104BB00033FF064A0649044813F00AF800BF0837D5
:104BC000BD4680BD3C9F0108040900200000002074
:104BD0003D4B000880B500AF4FF6FF710120FFF795
:104BE000D7FF80BD80B582B000AF786039607B6848
:104BF000012B41D13B684FF6FF7293423CD1204AD2
:104C00000321204811F0FCF91F4A20491D4812F0E9
:104C1000DFFF1F4A02211F4811F0F2F91A4A1B490F
:104C20001C4812F0D5FF1C4A01211C4811F0E8F97C
:104C3000154A1649194812F0CBFF194A04211948A0
:104C400011F0DEF9104A1149164812F0C1FF012394
:104C5000154A0221154810F081FD0B4A14491348EA
:104C600012F0B6FF134A0521134811F0C9F9064A9C
:104C70000649114812F0ACFF00BF0837BD4680BDA1
:104C8000609F01086C09002000000020E14C000832
:104C90007C9F0108080A0020989F0108A40A0020B0
:104CA000B49F0108400B0020D09F0108DC0B0020BE
:104CB000094D0008EC9F0108800C002038B50B68F6
:104CC0000360CB6804460D4640F8043F0831FDF709
:104CD00081FB291D2046FDF76DFB204638BD00BF36
:104CE00010B5054B054903F154020446C0E90032F2
:104CF000FFF7E4FF204610BD04A6010870A60108D6
:104D0000A0F10400ECE700BF10B5054B054903F125
:104D100054020446C0E90032FFF7D0FF204610BD20
:104D200098A4010804A50108A0F10400ECE700BF65
:104D300080B500AF4FF6FF710120FFF753FF80BD34
:104D400080B483B000AF7860064A7B681A607B68E5
:104D500000221A717B6818460C37BD465DF8047B4B
:104D6000704700BFD0A0010880B483B000AF786066
:104D7000044A7B681A607B6818460C37BD465DF8AC
:104D8000047B7047D0A0010880B582B000AF786086
:104D90007868FFF7E9FF7868FDF706FB7B6818463F
:104DA0000837BD4680BD00BF38B504462DED048BE5
:104DB0000D46B0EE408AF0EE608AB0EE419AFFF701
:104DC000BFFF00210A482060B0EE491AF0EE680AE1
:104DD000B0EE480AC4F80510C4F80910C4F80D1064
:104DE0002046294600F006F8BDEC048B204638BD6D
:104DF000C0A0010808B510EE90CA10EE10EA11EE3E
:104E0000102A0171C0F805E0C0F809C0C0F80D20F3
:104E100000F002F808BD00BFD0F80920D0F8051056
:104E200007EE102A07EE901A0346F4EEC77AF1EE69
:104E300010FA1046C8BFC3F80520D3F80D20C8BF2C
:104E4000C3F8091007EE102AB5EEC07ACCBF0120D6
:104E50000020F1EE10FA0CD4F7EE007AB4EEE77A07
:104E6000F1EE10FA04DD17EE902A0120C3F80D20B0
:104E70007047DFED047A17EE902A0120C3F80D2069
:104E8000F6E700BF0000000038B504462DED028BA8
:104E90000D46B0EE408AF0EE608AFFF751FF002227
:104EA00008492160F0EE680AB0EE480AC4F805200F
:104EB000C4F809202946204600F006F8BDEC028B14
:104EC000204638BDB0A0010808B510EE10CA10EE9B
:104ED000902A0171C0F805C0C0F8092000F002F85E
:104EE00008BD00BFD0F80520D0F8093007EE902AA1
:104EF00007EE103AF4EEC77AF1EE10FA83BFC0F86D
:104F00000920C0F8053001200020704738B504465C
:104F10002DED028B0D46B0EE408AFFF711FF074AD8
:104F200022600023B0EE480AC4F805302946204626
:104F300000F006F8BDEC028B204638BDA0A00108A9
:104F400008B510EE102A0171C0F8052000F002F833
:104F500008BD00BFD0F80520DFED087A07EE102A63
:104F6000B4EEE77AF1EE10FA034643BF17EE902A4B
:104F70000120C3F805200020704700BF6F12833A5C
:104F800038B504462DED028B0D46B0EE408AF0EEAA
:104F9000608AFFF7D5FE002208492160F0EE680A1A
:104FA000B0EE480AC4F80520C4F809202946204676
:104FB00000F006F8BDEC028B204638BD90A0010839
:104FC00008B510EE10CA10EE902A0171C0F805C0A5
:104FD000C0F8092000F002F808BD00BFD0F8052095
:104FE000D0F8093007EE902A07EE103AF4EEC77AAF
:104FF000F1EE10FAC3BFC0F80920C0F80530012057
:105000000020704738B504462DED028B0D46B0EEFA
:10501000408AF0EE608AFFF793FE00220849216083
:10502000F0EE680AB0EE480AC4F80520C4F809207A
:105030002946204600F006F8BDEC028B204638BD1C
:1050400080A0010808B510EE10CA10EE902A017178
:10505000C0F805C0C0F8092000F002F808BD00BF84
:10506000D0F8051007EE901AF5EEC07AF1EE10FABE
:1050700003464FF0000213D40020D3F8092007EEB6
:10508000102AF4EEC77AF1EE10FA08DD9FED077AE8
:1050900077EE877A012017EE902AC3F8092070472F
:1050A000C0F8052007EE902A0120E6E76F12833A48
:1050B00038B504462DED028B0D46B0EE408AF0EE79
:1050C000608AFFF73DFE074B2360F0EE680AB0EE02
:1050D000480A2946204600F007F8BDEC028B20461E
:1050E00038BD00BF70A0010808B510EE10CA10EE60
:1050F000902A4171C0F806C0C0F80A2000F002F8FA
:1051000008BD00BFD0F80620D0F80A3007EE902A7C
:1051100007EE103AF4EEC77AF1EE10FAC3BFC0F80A
:105120000A20C0F8063001200020704738B5044638
:105130000D46FFF705FE044B23602946204600F08C
:1051400005F8204638BD00BF60A0010801710020AD
:10515000704700BF38B504462DED048B0D46B0EE08
:10516000408AF0EE608AB0EE419AFFF7E9FD002137
:105170000A482060B0EE491AF0EE680AB0EE480A1C
:10518000C4F80510C4F80910C4F80D1020462946CB
:1051900000F006F8BDEC048B204638BD50A0010895
:1051A00008B510EE90CA10EE10EA11EE102A017147
:1051B000C0F805E0C0F809C0C0F80D2000F002F802
:1051C00008BD00BFD0F80920D0F8051007EE102A5E
:1051D00007EE901A0346F4EEC77AF1EE10FA104685
:1051E000C8BFC3F80520D3F80D20C8BFC3F8091005
:1051F00007EE102AB5EEC07ACCBF01200020F1EEF8
:1052000010FA0CD4F7EE007AB4EEE77AF1EE10FA69
:1052100004DD17EE902A0120C3F80D207047DFED62
:10522000017AF6E70000000038B504462DED028B48
:105230000D46B0EE408AFFF783FD074A2260002347
:10524000B0EE480AC4F805302946204600F006F8BA
:10525000BDEC028B204638BD40A0010808B510EE19
:10526000102A0171C0F8052000F002F808BD00BF47
:10527000D0F8052007EE102AB5EEC07AF1EE10FA4C
:1052800003460ED4F7EE007AB4EEE77AF1EE10FAA8
:1052900005DD17EE902A0120C3F805207047002095
:1052A0007047DFED047A17EE902A0120C3F805203D
:1052B000704700BF0000000038B504462DED028B9A
:1052C0000D46B0EE408AF0EE608AFFF739FD00220D
:1052D00008492160F0EE680AB0EE480AC4F80520DB
:1052E000C4F809202946204600F006F8BDEC028BE0
:1052F000204638BD30A0010808B510EE10CA10EEE7
:10530000902A0171C0F805C0C0F8092000F002F829
:1053100008BD00BFD0F80520D0F8093007EE902A6C
:1053200007EE103AF4EEC77AF1EE10FAC3BFC0F8F8
:105330000920C0F8053001200020704780B582B0F8
:1053400000AF78607B687F33184600F085FA7B6891
:105350007633184600F094FA7B686533184600F0FF
:10536000A3FA7B686033184600F0C0FA7B685233BA
:10537000184600F0CFFA7B684533184600F0DEFA95
:105380007B683833184600F0EDFA7B682F331846F7
:1053900000F0FCFA7B682233184600F00BFB7B68B8
:1053A0001133184600F01AFB7B6818460837BD46D3
:1053B00080BD00BF80B483B000AF7860044A7B68D2
:1053C0001A607B6818460C37BD465DF8047B704751
:1053D000E0A0010880B582B000AF78607868FFF780
:1053E000E9FF7868FCF7E0FF7B6818460837BD46A0
:1053F00080BD00BF80B483B000AF78603960074AD9
:105400007B681A603B681A797B681A717B6818465A
:105410000C37BD465DF8047B704700BFD0A0010883
:1054200080B582B000AF786039607B683A68114619
:105430001846FFF7DFFF104A7B681A603B68D3F815
:10544000052013461A467B6805331A603B68D3F87B
:10545000092013461A467B6809331A603B68D3F863
:105460000D2013461A467B680D331A607B68184678
:105470000837BD4680BD00BFC0A0010838B504464E
:105480000D46FFF7B7FF064B2360D5F80530C4F88B
:105490000530D5F80930C4F80930204638BD00BFC2
:1054A000B0A0010838B504460D46FFF7A3FF044B32
:1054B0002360D5F80530C4F80530204638BD00BF5C
:1054C000A0A0010838B504460D46FFF793FF064B30
:1054D0002360D5F80530C4F80530D5F80930C4F894
:1054E0000930204638BD00BF90A0010838B50446F9
:1054F0000D46FFF77FFF064B2360D5F80530C4F853
:105500000530D5F80930C4F80930204638BD00BF51
:1055100080A0010838B50D460446FFF76BFF6B7994
:10552000064A22606371D5F80630C4F80630D5F813
:105530000A30C4F80A30204638BD00BF70A0010808
:1055400010B50446FFF756FF014B2360204610BDFF
:1055500060A0010838B504460D46FFF74BFF084B25
:105560002360D5F80530C4F80530D5F80930C4F803
:105570000930D5F80D30C4F80D30204638BD00BFD5
:1055800050A0010838B504460D46FFF733FF044B21
:105590002360D5F80530C4F80530204638BD00BF7B
:1055A00040A0010838B504460D46FFF723FF064B1F
:1055B0002360D5F80530C4F80530D5F80930C4F8B3
:1055C0000930204638BD00BF30A0010880B582B048
:1055D00000AF786039603B681A787B681A703B6866
:1055E000D3F8012013461A467B6801331A603B68E2
:1055F000D3F8052013461A467B6805331A603B68CA
:10560000D3F8092013461A467B6809331A603B68B1
:10561000D3F80D207B68C3F80D207B6803F11102DD
:105620003B68113319461046FFF7FAFE7B6803F119
:1056300022023B68223319461046FFF71FFF7B68A2
:1056400003F12F023B682F3319461046FFF72AFF5C
:105650007B6803F138023B68383319461046FFF780
:1056600031FF7B6803F145023B684533194610461C
:10567000FFF73CFF7B6803F152023B685233194647
:105680001046FFF747FF7B6803F160023B68603319
:1056900019461046FFF754FF7B6803F165023B682B
:1056A000653319461046FFF755FF7B6803F1760214
:1056B0003B68763319461046FFF764FF7B6803F1B9
:1056C0007F023B687F3319461046FFF76BFF7B680C
:1056D00018460837BD4680BD10B5044600F02EF8C8
:1056E000204610BD80B483B000AF78607B681B6833
:1056F00018460C37BD465DF8047B704770B582B024
:1057000005466E46043086E8060000F02FF80023B8
:105710002B613046FFF7E6FF044602E000F050F848
:105720008C34304600F038F8844221462846F5D1C2
:1057300002B070BDC0E90100704700BF70B5846859
:105740000646051DAC420AD0204600F04DF86468BC
:105750000028F7D003685B689847AC42F4D128462C
:10576000FFF7E8FF0023336170BD00BF10B5054AA5
:105770000023C0E900230446836000F037F8204688
:1057800010BD00BF20A00108704700BF10B504463F
:10579000FCF70AFE204610BD90B583B000AF7860DC
:1057A0007868FFF79FFF0446786800F023F8034607
:1057B0008C2202FB03F3234418460C37BD4690BDF0
:1057C00038B5044698200D46FEF7E8F82946054608
:1057D00000F01CF8D4E90323211D0133C5E90112AF
:1057E0005560C4E9035338BD704700BFC0E90100EC
:1057F000704700BF80B483B000AF78607B685B689F
:1058000018460C37BD465DF8047B704738B5044632
:105810000D46FFF7ABFF2046034B40F80C3B2946F3
:10582000FFF7D4FE204638BD10A0010810B5044B88
:10583000044640F80C3BFFF781FD204610BD00BF39
:1058400010A0010810B50446FFF7F0FF2046FCF752
:10585000ABFD204610BD00BF10B5034B03600446EE
:10586000FFF782FA204610BD30A0010810B50446AB
:10587000FFF7F2FF2046FCF797FD204610BD00BF62
:1058800010B5034B03600446FFF76EFA204610BDC7
:1058900040A0010810B50446FFF7F2FF2046FCF7D0
:1058A00083FD204610BD00BF80B582B000AF786098
:1058B000054A7B681A607B681846FFF755FA7B68D3
:1058C00018460837BD4680BD50A0010880B582B09B
:1058D00000AF78607868FFF7E7FF7868FCF764FD51
:1058E0007B6818460837BD4680BD00BF10B5034B26
:1058F00003600446FFF738FA204610BD60A0010897
:1059000010B50446FFF7F2FF2046FCF74DFD204698
:1059100010BD00BF10B5034B03600446FFF724FA27
:10592000204610BD70A0010810B50446FFF7F2FF35
:105930002046FCF739FD204610BD00BF10B5034BD3
:1059400003600446FFF710FA204610BD80A001084E
:1059500010B50446FFF7F2FF2046FCF725FD204670
:1059600010BD00BF10B5034B03600446FFF7FCF900
:10597000204610BD90A0010810B50446FFF7F2FFC5
:105980002046FCF711FD204610BD00BF10B5034BAB
:1059900003600446FFF7E8F9204610BDA0A0010807
:1059A00010B50446FFF7F2FF2046FCF7FDFC204649
:1059B00010BD00BF10B5034B03600446FFF7D4F9D8
:1059C000204610BDB0A0010810B50446FFF7F2FF55
:1059D0002046FCF7E9FC204610BD00BF80B582B030
:1059E00000AF7860054A7B681A607B681846FFF74D
:1059F000BBF97B6818460837BD4680BDC0A00108CA
:105A000080B582B000AF78607868FFF7E7FF78680C
:105A1000FCF7CAFC7B6818460837BD4680BD00BF4E
:105A200080B582B000AF78600A4A7B681A607B68F4
:105A30002C331846FFF710FF7B6814331846FFF726
:105A40004BFE7B681846FFF7B5FC7B6818460837A5
:105A5000BD4680BD14A3010880B582B000AF786058
:105A60007868FFF7DDFF7868FCF79EFC7B681846D6
:105A70000837BD4680BD00BF90B5E1B000AF07F567
:105A8000C073A3F5BE73186007F5C073A3F5C073A8
:105A9000196007F5C073A3F5BE731B68012B40F0B6
:105AA000118207F5C073A3F5C0731B684FF6FF7230
:105AB000934240F00782F3EE040ABBEE040A012190
:105AC000B448FFF7F9FBB44AB449B24812F080F881
:105AD000F7EE000ABFEE000A0121B148FFF7ECFB28
