:020000040800F2
:1000000000000220F1A600089119000899190008C3
:10001000A1190008A9190008B11900080000000082
:10002000000000000000000000000000B9190008F6
:10003000C719000800000000D5190008E3190008DE
:1000400041A7000841A7000841A7000841A70008F0
:1000500041A7000841A7000841A7000841A70008E0
:1000600041A7000841A7000841A7000841A70008D0
:10007000F119000841A7000841A7000841A700089E
:1000800041A7000841A7000841A70008051A000879
:10009000191A000841A700082D1A000841A70008F6
:1000A00041A7000841A7000841A7000841A7000890
:1000B00041A70008411A000841A7000841A700080D
:1000C00041A70008551A0008691A000841A700084E
:1000D00041A700087D1A000841A70008911A0008EE
:1000E00041A7000841A7000841A7000841A7000850
:1000F00041A7000841A7000841A70008A51A000869
:1001000041A7000841A7000841A7000841A700082F
:1001100041A7000841A70008B91A000841A7000834
:1001200041A70008CD1A0008E11A000841A70008FD
:1001300041A7000841A7000841A70008F51A0008D8
:1001400041A70008091B00081D1B000841A7000863
:1001500041A70008311B0008451B0008591B000877
:1001600041A7000841A7000841A7000841A70008CF
:1001700041A7000841A7000841A7000800000000AF
:0801800041A7000841A7000897
:1001880010B5054C237833B9044B13B10448AFF3C9
:1001980000800123237010BD6800002000000000CB
:1001A8002C92010808B5034B1BB103490348AFF370
:1001B800008008BD000000006C0000202C9201089F
:1001C80081F0004102E000BF83F0004330B54FEA00
:1001D80041044FEA430594EA050F08BF90EA020F6D
:1001E8001FBF54EA000C55EA020C7FEA645C7FEA00
:1001F800655C00F0E2804FEA5454D4EB5555B8BF23
:100208006D420CDD2C4480EA020281EA030382EA93
:10021800000083EA010180EA020281EA0303362D25
:1002280088BF30BD11F0004F4FEA01314FF4801CF8
:100238004CEA113102D0404261EB410113F0004F0A
:100248004FEA03334CEA133302D0524263EB4303C1
:1002580094EA050F00F0A780A4F10104D5F1200E5F
:100268000DDB02FA0EFC22FA05F2801841F10001BA
:1002780003FA0EF2801843FA05F359410EE0A5F18E
:1002880020050EF1200E012A03FA0EFC28BF4CF0BF
:10029800020C43FA05F3C01851EBE37101F0004575
:1002A80007D54FF0000EDCF1000C7EEB00006EEB82
:1002B8000101B1F5801F1BD3B1F5001F0CD349080C
:1002C8005FEA30004FEA3C0C04F101044FEA445263
:1002D80012F5800F80F09A80BCF1004F08BF5FEAEA
:1002E800500C50F1000041EB045141EA050130BDCA
:1002F8005FEA4C0C404141EB0101013C28BFB1F5DC
:10030800801FE9D291F0000F04BF01460020B1FA26
:1003180081F308BF2033A3F10B03B3F120020CDAF9
:100328000C3208DD02F1140CC2F10C0201FA0CF0D7
:1003380021FA02F10CE002F11402D8BFC2F1200C3C
:1003480001FA02F120FA0CFCDCBF41EA0C019040F2
:10035800E41AA2BF01EB0451294330BD6FEA04043B
:100368001F3C1CDA0C340EDC04F11404C4F1200226
:1003780020FA04F001FA02F340EA030021FA04F338
:1003880045EA030130BDC4F10C04C4F1200220FA8F
:1003980002F001FA04F340EA0300294630BD21FACD
:1003A80004F0294630BD94F0000F83F4801306BF93
:1003B80081F480110134013D4EE77FEA645C18BF87
:1003C8007FEA655C29D094EA050F08BF90EA020F1E
:1003D80005D054EA000C04BF1946104630BD91EA16
:1003E800030F1EBF0021002030BD5FEA545C05D119
:1003F8004000494128BF41F0004130BD14F5800458
:100408003CBF01F5801130BD01F0004545F0FE41CB
:1004180041F470014FF0000030BD7FEA645C1ABF00
:10042800194610467FEA655C1CBF0B46024650EA37
:10043800013406BF52EA033591EA030F41F4002163
:1004480030BD00BF90F0000F04BF0021704730B5E9
:100458004FF4806404F132044FF000054FF00001BE
:1004680050E700BF90F0000F04BF0021704730B57F
:100478004FF4806404F1320410F0004548BF404254
:100488004FF000013EE700BF42004FEAE2014FEAA9
:1004980031014FEA02701FBF12F07F4393F07F4F84
:1004A80081F06051704732F07F4208BF704793F087
:1004B8007F4F04BF41F40021704730B54FF460749A
:1004C80001F0004521F000411CE700BF50EA01029D
:1004D80008BF704730B54FF000050AE050EA010246
:1004E80008BF704730B511F0004502D5404261EBB6
:1004F80041014FF4806404F132045FEA915C3FF4F7
:10050800D8AE4FF003025FEADC0C18BF03325FEA93
:10051800DC0C18BF033202EBDC02C2F1200300FA44
:1005280003FC20FA02F001FA03FE40EA0E0021FA69
:1005380002F11444BDE600BF70B54FF0FF0C4CF457
:10054800E06C1CEA11541DBF1CEA135594EA0C0F09
:1005580095EA0C0F00F0DEF82C4481EA030621EA44
:100568004C5123EA4C5350EA013518BF52EA03357F
:1005780041F4801143F4801338D0A0FB02CE4FF031
:100588000005E1FB02E506F00042E0FB03E54FF061
:100598000006E1FB03569CF0000F18BF4EF0010E59
:1005A800A4F1FF04B6F5007F64F5407404D25FEA55
:1005B8004E0E6D4146EB060642EAC62141EA555108
:1005C8004FEAC52040EA5E504FEACE2EB4F1FD0C4A
:1005D80088BFBCF5E06F1ED8BEF1004F08BF5FEAC8
:1005E800500E50F1000041EB045170BD06F000467A
:1005F80046EA010140EA020081EA0301B4EB5C0427
:10060800C2BFD4EB0C0541EA045170BD41F480111E
:100618004FF0000E013C00F3AB8014F1360FDEBF43
:10062800002001F0004170BDC4F10004203C35DA1F
:100638000C341BDC04F11404C4F1200500FA05F3A2
:1006480020FA04F001FA05F240EA020001F0004243
:1006580021F0004110EBD37021FA04F642EB0601B9
:100668005EEA430E08BF20EAD37070BDC4F10C04E3
:10067800C4F1200500FA04F320FA05F001FA04F2A7
:1006880040EA020001F0004110EBD37041F1000193
:100698005EEA430E08BF20EAD37070BDC4F120059E
:1006A80000FA05F24EEA020E20FA04F301FA05F206
:1006B80043EA020321FA04F001F0004121FA04F2AE
:1006C80020EA020000EBD3705EEA430E08BF20EA7E
:1006D800D37070BD94F0000F0FD101F000464000B8
:1006E80041EB010111F4801F08BF013CF7D041EA3A
:1006F800060195F0000F18BF704703F0004652003E
:1007080043EB030313F4801F08BF013DF7D043EA0E
:100718000603704794EA0C0F0CEA135518BF95EAC4
:100728000C0F0CD050EA410618BF52EA4306D1D14B
:1007380081EA030101F000414FF0000070BD50EA6A
:10074800410606BF1046194652EA430619D094EAF4
:100758000C0F02D150EA013613D195EA0C0F05D1DE
:1007680052EA03361CBF104619460AD181EA030132
:1007780001F0004141F0FE4141F470014FF00000EA
:1007880070BD41F0FE4141F4780170BD70B54FF085
:10079800FF0C4CF4E06C1CEA11541DBF1CEA135505
:1007A80094EA0C0F95EA0C0F00F0A7F8A4EB0504E7
:1007B80081EA030E52EA03354FEA013100F08880DE
:1007C8004FEA03334FF0805545EA131343EA1263A7
:1007D8004FEA022245EA111545EA10654FEA00265C
:1007E8000EF000419D4208BF964244F1FD0404F515
:1007F800407402D25B084FEA3202B61A65EB030571
:100808005B084FEA32024FF480104FF4002CB6EB2D
:10081800020E75EB030E22BFB61A754640EA0C00AD
:100828005B084FEA3202B6EB020E75EB030E22BFED
:10083800B61A754640EA5C005B084FEA3202B6EB2E
:10084800020E75EB030E22BFB61A754640EA9C00ED
:100858005B084FEA3202B6EB020E75EB030E22BFBD
:10086800B61A754640EADC0055EA060E18D04FEA7B
:10087800051545EA16754FEA06164FEAC30343EA1B
:1008880052734FEAC2025FEA1C1CC0D111F4801FE8
:100898000BD141EA00014FF000004FF0004CB6E7E1
:1008A80011F4801F04BF01430020B4F1FD0C88BF80
:1008B800BCF5E06F3FF6AFAEB5EB030C04BFB6EB8B
:1008C800020C5FEA500C50F1000041EB045170BD7E
:1008D8000EF0004E4EEA113114EB5C04C2BFD4EBAB
:1008E8000C0541EA045170BD41F480114FF0000E2F
:1008F800013C90E645EA060E8DE60CEA135594EAAB
:100908000C0F08BF95EA0C0F3FF43BAF94EA0C0FAD
:100918000AD150EA01347FF434AF95EA0C0F7FF422
:1009280025AF104619462CE795EA0C0F06D152EA76
:1009380003353FF4FDAE1046194622E750EA41065A
:1009480018BF52EA43067FF4C5AE50EA41047FF46B
:100958000DAF52EA43057FF4EBAE12E74FF0FF3CD0
:1009680006E000BF4FF0010C02E000BF4FF0010CA1
:100978004DF804CD4FEA410C7FEA6C5C4FEA430C1A
:1009880018BF7FEA6C5C1BD001B050EA410C0CBF69
:1009980052EA430C91EA030F02BF90EA020F0020CB
:1009A800704710F1000F91EA030F58BF994208BF32
:1009B80090422CBFD8176FEAE37040F001007047EF
:1009C8004FEA410C7FEA6C5C02D150EA013C07D146
:1009D8004FEA430C7FEA6C5CD6D152EA033CD3D091
:1009E8005DF8040B704700BF8446104662468C468B
:1009F8001946634600E000BF01B5FFF7B7FF0028BE
:100A080048BF10F1000F01BD4DF808EDFFF7F4FFE6
:100A18000CBF012000205DF808FB00BF4DF808ED71
:100A2800FFF7EAFF34BF012000205DF808FB00BF94
:100A38004DF808EDFFF7E0FF94BF012000205DF8B6
:100A480008FB00BF4DF808EDFFF7CEFF94BF01206B
:100A580000205DF808FB00BF4DF808EDFFF7C4FF64
:100A680034BF012000205DF808FB00BF4FEA4102B7
:100A780012F5001215D211D56FF47873B3EB6252E8
:100A880012D94FEAC12343F0004343EA505311F00F
:100A9800004F23FA02F018BF404270474FF00000A1
:100AA800704750EA013005D111F0004008BF6FF0DF
:100AB800004070474FF00000704700BF4FEA410206
:100AC800B2F1E04324BFB3F5001CDCF1FE5C0DD9A4
:100AD80001F0004C4FEAC0024CEA5070B2F1004FEE
:100AE80040EB830008BF20F00100704711F0804FF1
:100AF80021D113F13872BCBF01F00040704741F4B6
:100B080080114FEA5252C2F11802C2F1200C10FAB9
:100B18000CF320FA02F018BF40F001004FEAC1239D
:100B28004FEAD32303FA0CFC40EA0C0023FA02F341
:100B38004FEA4303CCE77FEA625307D150EA013317
:100B48001EBF4FF0FE4040F44000704701F00040E7
:100B580040F0FE4040F40000704700BF80F00040C5
:100B680002E000BF81F0004142001FBF5FEA41037D
:100B780092EA030F7FEA226C7FEA236C6AD04FEA7D
:100B88001262D2EB1363C1BFD218414048404140C2
:100B9800B8BF5B42192B88BF704710F0004F40F474
:100BA800000020F07F4018BF404211F0004F41F490
:100BB800000121F07F4118BF494292EA030F3FD05C
:100BC800A2F1010241FA03FC10EB0C00C3F120036F
:100BD80001FA03F100F0004302D5494260EB4000FE
:100BE800B0F5000F13D3B0F1807F06D340084FEA69
:100BF800310102F10102FE2A51D2B1F1004F40EB5E
:100C0800C25008BF20F0010040EA030070474900C5
:100C180040EB0000013A28BFB0F5000FEDD2B0FA62
:100C280080FCACF1080CB2EB0C0200FA0CF0AABF85
:100C380000EBC25052421843BCBFD0401843704723
:100C480092F0000F81F4000106BF80F40000013229
:100C5800013BB5E74FEA41037FEA226C18BF7FEA00
:100C6800236C21D092EA030F04D092F0000F08BF42
:100C78000846704790EA010F1CBF0020704712F029
:100C88007F4F04D1400028BF40F00040704712F168
:100C980000723CBF00F50000704700F0004343F0CD
:100CA800FE4040F4000070477FEA226216BF084603
:100CB8007FEA23630146420206BF5FEA412390EAC6
:100CC800010F40F4800070474FF0000304E000BFBC
:100CD80010F0004348BF40425FEA000C08BF70476D
:100CE80043F0964301464FF000001CE050EA010231
:100CF80008BF70474FF000030AE000BF50EA010246
:100D080008BF704711F0004302D5404261EB410132
:100D18005FEA010C02BF84460146002043F0B64357
:100D280008BFA3F18053A3F50003BCFA8CF2083A7C
:100D3800A3EBC25310DB01FA02FC634400FA02FC85
:100D4800C2F12002BCF1004F20FA02F243EB02008C
:100D580008BF20F00100704702F1200201FA02FCEE
:100D6800C2F1200250EA4C0021FA02F243EB0200E1
:100D780008BF20EADC70704753B94AB9002908BF98
:100D880000281CBF4FF0FF314FF0FF3000F06AB968
:100D9800ADF1080C6DE904CE00F006F8DDF804E0CA
:100DA800DDE9022304B070472DE9F047089D0C46A1
:100DB800002B4ED194468C458646B2FA82F262D90F
:100DC8004AB1C2F12003914020FA03F30CFA02FC65
:100DD800194300FA02FE4FEA1C471FFA8CF6B1FBD2
:100DE800F7F44FEA1E4307FB141143EA014304FBDF
:100DF80006F199420AD91CEB030304F1FF3080F095
:100E08001281994240F20F81023C6344591A1FFA39
:100E18008EF3B1FBF7F007FB101143EA014300FB27
:100E280006F69E420AD91CEB030300F1FF3180F05D
:100E3800FC809E4240F2F980634402389B1B40EAE2
:100E4800044000211DB1D3400022C5E90032BDE8AD
:100E5800F0878B4205D90DB1C5E90001002108468C
:100E6800F5E7B3FA83F1002946D1A34202D39042B1
:100E7800C0F0F080861A64EB03030120002DE6D051
:100E8800C5E90063E3E7002A40F09080A1EB0C0479
:100E98004FEA1C481FFA8CF70121B4FBF8F64FEA19
:100EA8001E4308FB164443EA044307FB06F0984236
:100EB80008D91CEB030306F1FF3402D2984200F272
:100EC800CD8026461C1A1FFA8EF3B4FBF8F008FBF7
:100ED800104443EA044300FB07F79F4208D91CEB80
:100EE800030300F1FF3402D29F4200F2B080204693
:100EF800DB1B40EA0640A5E7C1F120068B4022FA39
:100F080006F71F4320FA06FC04FA01F343EA0C0330
:100F1800F44000FA01F8380C4FEA1349B4FBF0FE2C
:100F28001FFA87FC00FB1E4449EA04440EFB0CF937
:100F3800A14502FA01F20AD93C190EF1FF3A80F0F4
:100F48008480A14540F28180AEF1020E3C44A4EBBE
:100F580009041FFA83F9B4FBF0F300FB134449EAD0
:100F6800044403FB0CFCA44507D93C1903F1FF30EA
:100F780067D2A44565D9023B3C4443EA0E40A0FB36
:100F88000293A4EB0C049C42CE469C4651D34ED00F
:100F980055B1B8EB0E0364EB0C0404FA06F6CB402B
:100FA8001E43CC40C5E90064002150E7C2F120038C
:100FB80020FA03F10CFA02FC24FA03F394400C43E0
:100FC8004FEA1C4800FA02FE1FFA8CF7B3FBF8F050
:100FD80008FB1031230C43EA014300FB07F1994257
:100FE80008D91CEB030300F1FF362CD299422AD909
:100FF800023863445B1AA4B2B3FBF8F108FB11335F
:1010080044EA034401FB07F3A34208D91CEB040498
:1010180001F1FF3613D2A34211D902396444E41A0C
:1010280041EA004139E70446F0E6084606E7C845C4
:10103800AED2B9EB020E63EB070C0138A8E73146D4
:10104800EDE7034699E73046D4E7D6467FE76344A1
:1010580002384DE70646234608460FE7023E63443A
:1010680030E700BF704700BF80B500AF174B184A84
:101078001A60164B03225A60144B00229A60134BD5
:101088000022DA60114B4FF400221A610F4B4FF423
:1010980040125A610D4B00221A760C4B00225A76E8
:1010A8000A4B00229A76094B0122DA76074B002276
:1010B8001A77064B01225A77044809F0D5FB0346F4
:1010C800002B01D000F088FB00BF80BD8400002009
:1010D8000064004080B500AF174B184A1A60164BE1
:1010E80003225A60144B00229A60134B0022DA60E4
:1010F800114B4FF400221A610F4B4FF440125A6102
:101108000D4B00221A760C4B00225A760A4B00220D
:101118009A76094B0122DA76074B00221A77064B9A
:1011280001225A77044809F09FFB0346002B01D09F
:1011380000F052FB00BF80BDAC00002000680040FA
:1011480080B58CB000AF786007F11C0300221A60EC
:101158005A609A60DA601A617B681B685A4A93423F
:101168004DD15A4B1B680133584A1360574B1B68C3
:10117800012B0DD10023BB61554B1B6C544A43F026
:1011880000731364524B1B6C03F00073BB61BB69A3
:1011980000237B614E4B1B6B4D4A43F008031363DE
:1011A8004B4B1B6B03F008037B617B690323FB61DB
:1011B80002233B6200237B620323BB620923FB6299
:1011C80007F11C03194643480BF0DCF90022012102
:1011D80013200AF0FDFB13200AF026FC002201214F
:1011E80014200AF0F5FB14200AF01EFC002200214E
:1011F80016200AF0EDFB16200AF016FC5FE07B686B
:101208001B68354A93425AD100233B61304B1B6C13
:101218002F4A43F0806313642D4B1B6C03F08063EB
:101228003B613B69294B1B680133284A1360274BF4
:101238001B68012B0DD10023FB60254B1B6C244A36
:1012480043F000731364224B1B6C03F00073FB60C4
:10125800FB680023BB601E4B1B6B1D4A43F0020357
:1012680013631B4B1B6B03F00203BB60BB6860235B
:10127800FB6102233B6200237B620323BB620923D9
:10128800FB6207F11C03194614480BF07BF9002296
:1012980001213F200AF09CFB3F200AF0C5FB0022F9
:1012A800012141200AF094FB41200AF0BDFB0022F5
:1012B800002142200AF08CFB42200AF0B5FB00BF57
:1012C8003037BD4680BD00BF00640040D400002018
:1012D80000380240000C0240006800400004024050
:1012E80080B582B000AF00237B60274B1B6B264A7A
:1012F80043F480031363244B1B6B03F480037B606C
:101308007B6800233B60204B1B6B1F4A43F4001390
:1013180013631D4B1B6B03F400133B603B680022F7
:1013280001210C200AF054FB0C200AF07DFB00225E
:1013380005212F200AF04CFB2F200AF075FB002214
:10134800012139200AF044FB39200AF06DFB002204
:1013580001213A200AF03CFB3A200AF065FB002202
:10136800012145200AF034FB45200AF05DFB0022EC
:10137800012146200AF02CFB46200AF055FB00BF4D
:101388000837BD4680BD00BF0038024080B58EB02A
:1013980000AF07F1240300221A605A609A60DA60ED
:1013A8001A6100233B62564B1B6B554A43F00203FC
:1013B8001363534B1B6B03F002033B623B6A00232E
:1013C800FB614F4B1B6B4E4A43F0400313634C4B7E
:1013D8001B6B03F04003FB61FB690023BB61484BB7
:1013E8001B6B474A43F001031363454B1B6B03F028
:1013F8000103BB61BB6900237B61414B1B6B404A06
:1014080043F0080313633E4B1B6B03F008037B6137
:101418007B6900233B613A4B1B6B394A43F0040359
:101428001363374B1B6B03F004033B613B690023D9
:10143800FB60334B1B6B324A43F020031363304B82
:101448001B6B03F02003FB60FB680023BB602C4B85
:101458001B6B2B4A43F080031363294B1B6B03F070
:101468008003BB60BB6800237B60254B1B6B244A51
:1014780043F010031363224B1B6B03F010037B60D4
:101488007B6800224FF4E0511E480BF05BFB012201
:1014980010211D480BF056FB012201211B480BF0BF
:1014A80051FB4FF4E0537B620123BB620023FB62D4
:1014B80000233B6307F12403194612480BF062F836
:1014C80010237B620123BB620023FB6203233B637F
:1014D80007F1240319460C480BF054F801237B62EA
:1014E8000123BB620023FB6203233B6307F1240350
:1014F800194606480BF046F800BF3837BD4680BD90
:1015080000380240001C0240000002400004024073
:1015180080B500AF124B134A1A60114B124A5A6039
:101528000F4B00229A600E4B0022DA600C4B4FF4EE
:1015380080421A610A4B00225A61094B00229A61C3
:10154800074B0022DA61064B00221A6204480BF0AE
:1015580025FB0346002B01D000F03EF900BF80BDFB
:10156800D800002000580040801A060080B58AB0D4
:1015780000AF786007F1140300221A605A609A607D
:10158800DA601A617B681B68384A93426AD1002383
:101598003B61374B1B6B364A43F020031363344BD4
:1015A8001B6B03F020033B613B6903237B61122320
:1015B800BB610023FB6103233B6204237B6207F1C9
:1015C800140319462B480AF0DDFF0023FB60284B63
:1015D8001B6C274A43F480031364254B1B6C03F4EC
:1015E8008003FB60FB68244B244A1A60224B4FF0AF
:1015F80060625A60204B40229A601F4B0022DA60DA
:101608001D4B4FF480621A611B4B00225A611A4B22
:1016180000229A61184B0022DA61174B4FF44032CE
:101628001A62154B00225A6213480AF021FA03463F
:10163800002B01D000F0D0F87B680F4A5A630E4A9D
:101648007B6893630022052121200AF0C1F921203B
:101658000AF0EAF90022052122200AF0B9F922202D
:101668000AF0E2F900BF2837BD4680BD00580040A7
:1016780000380240001402402C010020B8600240EB
:1016880080B500AF094B0A4A1A60084B03225A601A
:10169800064B4FF416729A6004480DF031F9034670
:1016A800002B01D000F098F800BF80BD8C0100200D
:1016B8000030004080B500AF09F040F800F020F895
:1016C800FFF764FEFFF70CFEFFF704FD00F096F845
:1016D800FFF7CAFC00F088FB00F0C8FD00F0F0FD41
:1016E80000F01AFE00F0F6FBFFF7CAFF00F028FC36
:1016F800FFF70EFF00F07EFA00F000FB00BFFDE7E9
:1017080080B594B000AF07F12003302200211846BD
:1017180017F0ECFC07F10C0300221A605A609A607B
:10172800DA601A610023BB60294B1B6C284A43F01E
:1017380080531364264B1B6C03F08053BB60BB685B
:1017480000237B60234B1B68224A43F480431360C9
:10175800204B1B6803F480437B607B6809233B6252
:101768004FF480337B6201237B630223BB634FF416
:101778008003FB6306233B64A8237B640223BB64CA
:101788000723FB6407F1200318460DF041F90346CF
:10179800002B01D000F020F80F23FB6002233B61EF
:1017A80000237B614FF4A053BB614FF48053FB616E
:1017B80007F10C03052118460DF056FC0346002BD3
:1017C80001D000F009F800BF5037BD4680BD00BF0A
:1017D800003802400070004080B400AF72B600BF0D
:1017E80000BFFDE780B483B000AF7860396000BF08
:1017F8000C37BD465DF8047B7047000080B500AF2C
:10180800174B184A1A60164B4FF482725A60144BE1
:1018180000229A60124B0022DA60114B00221A61F2
:101828000F4B00225A610E4B4FF400729A610C4B19
:101838001822DA610A4B00221A62094B00225A6206
:10184800074B00229A62064B0A22DA6204480DF01E
:1018580093FE0346002B01D0FFF7BEFF00BF80BDFB
:10186800980100200030014080B58AB000AF786050
:1018780007F1140300221A605A609A60DA601A614C
:101888007B681B68284A934249D100233B61274B58
:101898005B6C264A43F480535364244B5B6C03F41B
:1018A80080533B613B690023FB60204B1B6B1F4A45
:1018B80043F0020313631D4B1B6B03F00203FB6031
:1018C800FB680023BB60194B1B6B184A43F00103EC
:1018D8001363164B1B6B03F00103BB60BB68182333
:1018E8007B610223BB610023FB6103233B62052369
:1018F8007B6207F1140319460D480AF043FE802362
:101908007B610223BB610023FB6103233B62052348
:101918007B6207F11403194606480AF033FE00BF3C
:101928002837BD4680BD00BF003001400038024066
:10193800000402400000024080B483B000AF0023DE
:101948007B60104B5B6C0F4A43F4804353640D4B30
:101958005B6C03F480437B607B6800233B60094B2E
:101968001B6C084A43F080531364064B1B6C03F04E
:1019780080533B603B6800BF0C37BD465DF8047B75
:10198800704700BF0038024080B400AF00BFFDE7D9
:1019980080B400AF00BFFDE780B400AF00BFFDE733
:1019A80080B400AF00BFFDE780B400AF00BFFDE723
:1019B80080B400AF00BFBD465DF8047B704780B4BB
:1019C80000AF00BFBD465DF8047B704780B400AF30
:1019D80000BFBD465DF8047B704780B500AF08F0D6
:1019E800FFFE00BF80BD000080B500AF02480AF0CE
:1019F80051FB00BF80BD00BFF404002080B500AFDC
:101A0800024809F0F7FC00BF80BD00BF8400002039
:101A180080B500AF024809F0EDFC00BF80BD00BFF3
:101A28008400002080B500AF024809F0E3FC00BF45
:101A380080BD00BF8400002080B500AF02480EF0D2
:101A4800F3FF00BF80BD00BF3C02002080B500AF9F
:101A580002480BF080FA00BF80BD00BFD80000200C
:101A680080B500AF02480BF0C9FB00BF80BD00BFC6
:101A7800D800002080B500AF024810F0DBFE00BFA0
:101A880080BD00BF5C03002080B500AF024810F0A5
:101A9800D1FE00BF80BD00BFA403002080B500AF09
:101AA80002480AF0F7FA00BF80BD00BF2C010020F1
:101AB80080B500AF02480EF0B7FF00BF80BD00BF81
:101AC800CC02002080B500AF02480AF0E3FA00BF5C
:101AD80080BD00BFB405002080B500AF02480AF001
:101AE800D9FA00BF80BD00BF9404002080B500AFC4
:101AF800024809F07FFC00BF80BD00BFAC00002099
:101B080080B500AF024809F075FC00BF80BD00BF7A
:101B1800AC00002080B500AF024809F06BFC00BFA4
:101B280080BD00BFAC00002080B500AF02480AF0BD
:101B3800B1FA00BF80BD00BF5405002080B500AFDA
:101B480002480AF0A7FA00BF80BD00BF3404002095
:101B580080B500AF024810F06DFE00BF80BD00BF29
:101B6800EC03002080B586B000AF7860144A154BAE
:101B7800D31A7B617B693B61134B1B68002B02D135
:101B8800114B124A1A60104B1A687B6813443A6961
:101B98009A4207D217F0C2FA03460C221A604FF095
:101BA800FF3309E0084B1B68FB60074B1A687B682A
:101BB8001344054A1360FB6818461837BD4680BDB4
:101BC8000000022000050000F0010020B8110020EC
:101BD80080B400AF064BD3F88830054A43F470034D
:101BE800C2F8883000BFBD465DF8047B704700BF6F
:101BF80000ED00E080B592B000AF07F1400300228D
:101C08001A605A6007F1240300221A605A609A6029
:101C1800DA601A615A619A613B1D20220021184638
:101C280017F064FA334B344A1A60324BA7225A60D1
:101C3800304B00229A602F4B44F61F62DA602D4B1E
:101C480000221A612B4B00225A612A4B00229A610A
:101C580028480EF01DFB0346002B01D0FFF7BCFD02
:101C680000233B6400237B6407F1400319462148A5
:101C780010F04EF90346002B01D0FFF7ADFD6023AD
:101C88007B6240F2BE53BB620023FB6200233B63CE
:101C980000237B630023BB630023FB6307F124035A
:101CA8000022194613480EF0AFFF0346002B01D05F
:101CB800FFF792FD00237B600023BB600023FB60DD
:101CC80000233B6100237B614FF40053BB61002379
:101CD8003B623B1D1946074810F0F8F90346002BF4
:101CE80001D0FFF779FD034800F00CFA00BF483730
:101CF800BD4680BDF40100200000014080B58EB0D3
:101D080000AF07F1280300221A605A609A60DA606F
:101D180007F1200300221A605A603B1D00221A6056
:101D28005A609A60DA601A615A619A612C4B2D4A9E
:101D38001A602B4B53225A60294B00229A60284B79
:101D480040F2E732DA60264B00221A61244B002267
:101D58009A6123480EF084F90346002B01D0FFF75F
:101D68003BFD4FF48053BB6207F1280319461C481A
:101D78000FF022F90346002B01D0FFF72DFD18487C
:101D88000EF086FA0346002B01D0FFF725FD00234D
:101D98003B6200237B6207F120031946104810F0CC
:101DA800B7F80346002B01D0FFF716FD60237B60D0
:101DB8000023BB600023FB6000237B613B1D0822DE
:101DC800194607480EF020FF0346002B01D0FFF705
:101DD80003FD034800F096F900BF3837BD4680BDC3
:101DE8003C0200200004004080B58EB000AF07F12F
:101DF800280300221A605A609A60DA6007F120030B
:101E080000221A605A603B1D00221A605A609A60CC
:101E1800DA601A615A619A612C4B2D4A1A602B4B71
:101E280053225A60294B00229A60284B0022DA601C
:101E3800264B00221A61254B00229A6123480EF096
:101E48000FF90346002B01D0FFF7C6FC4FF480536F
:101E5800BB6207F1280319461C480FF0ADF803468A
:101E6800002B01D0FFF7B8FC18480EF011FA034612
:101E7800002B01D0FFF7B0FC00233B6200237B62FC
:101E880007F120031946114810F042F80346002BC9
:101E980001D0FFF7A1FC60237B600023BB60002317
:101EA800FB6000237B613B1D0822194607480EF0A2
:101EB800ABFE0346002B01D0FFF78EFC034800F071
:101EC80021F900BF3837BD4680BD00BF840200201D
:101ED8000008004080B582B000AF3B4600221A607F
:101EE8005A60154B154A1A60134B53225A60124B0D
:101EF80000229A60104B40F2E732DA600E4B002263
:101F08009A610D480EF0ACF80346002B01D0FFF79C
:101F180063FC00233B6000237B603B461946064870
:101F28000FF0F6FF0346002B01D0FFF755FC00BF6A
:101F38000837BD4680BD00BFCC020020001000401D
:101F480080B588B000AF3B1D00221A605A609A60C5
:101F5800DA601A615A619A611E4B1F4A1A601D4B5A
:101F680000225A601B4B00229A601A4B41F28732BA
:101F7800DA60184B00221A61164B00229A61154844
:101F88000EF06EF80346002B01D0FFF725FC114830
:101F98000EF07EF90346002B01D0FFF71DFC6023ED
:101FA8007B600023BB600023FB6000237B613B1D3B
:101FB8000022194607480EF027FE0346002B01D0E1
:101FC800FFF70AFC034800F09DF800BF2037BD4624
:101FD80080BD00BF140300200044014080B485B0D8
:101FE80000AF78607B681B680B4A93420DD10023D1
:101FF800FB600A4B5B6C094A43F001035364074BCF
:102008005B6C03F00103FB60FB6800BF1437BD463F
:102018005DF8047B704700BF0000014000380240B3
:1020280080B586B000AF78607B681B68304A934201
:1020380016D100237B612F4B1B6C2E4A43F0020301
:1020480013642C4B1B6C03F002037B617B69002239
:1020580001211D2009F0BCFC1D2009F0E5FC42E02F
:102068007B681B68244A93420ED100233B61214BB5
:102078001B6C204A43F0040313641E4B1B6C03F0D3
:1020880004033B613B692EE07B681B681B4A934253
:1020980016D10023FB60174B1B6C164A43F0100344
:1020A8001364144B1B6C03F01003FB60FB680022E5
:1020B8000221362009F08CFC362009F0B5FC12E02C
:1020C8007B681B680E4A93420DD10023BB60094B05
:1020D8005B6C084A43F400335364064B5B6C03F4AF
:1020E8000033BB60BB6800BF1837BD4680BD00BF6A
:1020F8000004004000380240000800400010004082
:102108000044014080B58CB000AF786007F11C0333
:1021180000221A605A609A60DA601A617B681B684C
:10212800494A93421FD10023BB61484B1B6B474A66
:1021380043F010031363454B1B6B03F01003BB61A3
:10214800BB694FF40073FB6102233B6200237B628F
:102158000023BB620123FB6207F11C0319463C48BC
:102168000AF010FA6CE07B681B683A4A93421FD168
:1021780000237B61354B1B6B344A43F00403136324
:10218800324B1B6B03F004037B617B694FF4807354
:10219800FB6102233B6200237B620023BB620223B4
:1021A800FB6207F11C0319462B480AF0EBF947E0DC
:1021B8007B681B68294A93421FD100233B61234B4C
:1021C8001B6B224A43F008031363204B1B6B03F07D
:1021D80008033B613B694FF48043FB6102233B6288
:1021E80000237B620023BB620223FB6207F11C030E
:1021F80019461B480AF0C6F922E07B681B68194A91
:1022080093421DD10023FB60104B1B6B0F4A43F018
:10221800200313630D4B1B6B03F02003FB60FB686B
:102228004023FB6102233B6200237B620023BB62E5
:102238000323FB6207F11C0319460B480AF0A2F9B5
:1022480000BF3037BD4680BD000001400038024065
:10225800001002400004004000080240000800404E
:10226800000C0240004401400014024080B500AF59
:10227800114B124A1A60104B4FF4E1325A600E4B60
:1022880000229A600C4B0022DA600B4B00221A6184
:10229800094B0C225A61084B00229A61064B002216
:1022A800DA6105480FF0F2FF0346002B01D0FFF773
:1022B80093FA00BF80BD00BF5C03002000100140FE
:1022C80080B500AF114B124A1A60104B114A5A6080
:1022D8000E4B4FF480529A600C4B0022DA600B4B85
:1022E8004FF480621A61094B04225A61074B00229D
:1022F8009A61064B0022DA6104480FF0C7FF0346D3
:10230800002B01D0FFF768FA00BF80BDA4030020AE
:1023180000480040A086010080B500AF114B124A6A
:102328001A60104B4FF4E1325A600E4B00229A604B
:102338000C4B0022DA600B4B00221A61094B0C226D
:102348005A61084B00229A61064B0022DA6105485F
:102358000FF09CFF0346002B01D0FFF73DFA00BFAA
:1023680080BD00BFEC0300200014014080B58EB092
:1023780000AF786007F1240300221A605A609A605F
:10238800DA601A617B681B68904A934240F0B28019
:1023980000233B628E4B5B6C8D4A43F01003536401
:1023A8008B4B5B6C03F010033B623B6A0023FB61C1
:1023B800874B1B6B864A43F002031363844B1B6BEA
:1023C80003F00203FB61FB690023BB61804B1B6BBD
:1023D8007F4A43F0010313637D4B1B6B03F001033A
:1023E800BB61BB6980237B620223BB620023FB6263
:1023F80003233B6307237B6307F1240319467548CE
:102408000AF0C0F84FF400737B620223BB6200231A
:10241800FB6203233B6307237B6307F1240319460D
:102428006D480AF0AFF86D4B6D4A1A606B4B4FF070
:1024380000625A60694B40229A60684B0022DA6059
:10244800664B4FF480621A61644B00225A61634BF9
:1024580000229A61614B0022DA61604B4FF44032EE
:102468001A625E4B00225A625C4809F001FB03467F
:10247800002B01D0FFF7B0F97B68584A9A63574A96
:102488007B689363574B584A1A60564B4FF000626B
:102498005A60544B00229A60524B0022DA60514B2A
:1024A8004FF480621A614F4B00225A614D4B002253
:1024B8009A614C4B0022DA614A4B4FF440321A625F
:1024C800484B00225A62474809F0D2FA0346002BCB
:1024D80001D0FFF781F97B68424ADA63414A7B6899
:1024E800936300220021252009F072FA252009F0C3
:1024F8009BFA1CE17B681B683C4A93427ED100230F
:102508007B61334B1B6C324A43F480231364304B9A
:102518001B6C03F480237B617B6900233B612C4B9C
:102528001B6B2B4A43F004031363294B1B6B03F00B
:1025380004033B613B694FF440637B620223BB6247
:102548000023FB6203233B6307237B6307F1240318
:10255800194627480AF016F8264B274A1A60254BD1
:102568004FF000625A60234B00229A60214B0022F0
:10257800DA60204B4FF480621A611E4B00225A61C8
:102588001C4B00229A611B4B4FF48072DA61194B85
:102598004FF440321A62174B00225A62154809F06C
:1025A80067FA0346002B01D0FFF716F97B68114A3A
:1025B800DA63104A7B68936300220121272009F01F
:1025C80007FA272009F030FAB1E000BF00100140F7
:1025D8000038024000040240000002403404002099
:1025E800B86402409404002040640240004800405F
:1025F80000080240F4040020286002407B681B6841
:102608004D4A934240F093800023FB604B4B5B6C38
:102618004A4A43F020035364484B5B6C03F02003A1
:10262800FB60FB680023BB60444B1B6B434A43F0D1
:1026380040031363414B1B6B03F04003BB60BB6853
:102648004FF484437B620223BB620023FB620323B3
:102658003B6308237B6307F124031946384809F0D4
:1026680091FF384B384A1A60364B4FF020625A6057
:10267800344B40229A60334B0022DA60314B4FF4DE
:1026880080621A612F4B00225A612E4B00229A61F8
:102698002C4B0022DA612B4B4FF400321A62294B83
:1026A80000225A62274809F0E3F90346002B01D0BB
:1026B800FFF792F87B68234A9A63224A7B68936300
:1026C800224B234A1A60214B4FF020625A601F4B5D
:1026D80000229A601D4B0022DA601C4B4FF4806286
:1026E8001A611A4B00225A61184B00229A61174B43
:1026F8000022DA61154B4FF440321A62134B002264
:102708005A62124809F0B4F90346002B01D0FFF7CA
:1027180063F87B680D4ADA630C4A7B68936300228E
:102728000121472009F054F9472009F07DF900BF3D
:102738003837BD4680BD00BF001401400038024054
:102748000018024054050020A0640240B40500208F
:102758002864024016F006BC08B50021FFF7FAFF0E
:1027680008BD00BF80B483B000AF786039603B68B3
:102778001A687B681A607B6818460C37BD465DF896
:10278800047B704780B483B000AF786039603B68E1
:102798001A687B681A607B6818460C37BD465DF876
:1027A800047B704710B5044613F042FC00236060B8
:1027B800237210BD80B483B000AF78600B46FB7005
:1027C800FB78002B05D07B689B780133DAB27B68F5
:1027D8009A7000BF0C37BD465DF8047B704700BF98
:1027E80080B483B000AF78607B689A787B68DA70D1
:1027F80000BF0C37BD465DF8047B704780B584B0D8
:1028080000AF78600B46FB707B689A787B68DB7852
:102818009A4214BF01230023FB73FB78002B02D0DC
:102828007868FFF7DDFFFB7B18461037BD4680BD93
:1028380080B483B000AF78607B681B6918460C379A
:10284800BD465DF8047B704780B483B000AF786004
:102858007B681B7D18460C37BD465DF8047B7047C6
:1028680080B483B000AF78607B6800221A7500BF1F
:102878000C37BD465DF8047B704700BF80B483B059
:1028880000AF786039607B683A689A6100BF0C379E
:10289800BD465DF8047B704780B483B000AF7860B4
:1028A8007B689B6A18460C37BD465DF8047B704709
:1028B800A0F10400F0E700BF80B483B000AF7860F7
:1028C8007B68DB6A5A1C7B68DA6200BF0C37BD463E
:1028D8005DF8047B704700BFA0F10400ECE700BF7F
:1028E80080B483B000AF78607B68303318460C370B
:1028F800BD465DF8047B704780B483B000AF786054
:102908007B68343318460C37BD465DF8047B704746
:1029180080B483B000AF78607B685C3318460C37AE
:10292800BD465DF8047B704780B483B000AF786023
:102938007B68803318460C37BD465DF8047B7047CA
:1029480080B483B000AF78607B68983318460C3742
:10295800BD465DF8047B704780B483B000AF7860F3
:102968007B68743318460C37BD465DF8047B7047A6
:1029780080B584B000AFF860B9607A607B68002BDE
:1029880002D0BB68082B01D000231CE0FB681B7A2F
:10299800002B04D17968F86800F06AF80AE0FB684F
:1029A8001B7A012B04D17968F86800F09FF801E0E0
:1029B800002308E0FB681C331846FFF7F3FEFB68AA
:1029C80001221A75012318461037BD4680BD00BF85
:1029D80080B584B000AFF860B9607A607B68002B7E
:1029E80001D1002317E0FB681B7A002B04D179681A
:1029F800F86800F057F80AE0FB681B7A012B04D14D
:102A08007968F86800F010F801E0002303E0BB687B
:102A180008221A60012318461037BD4680BD00BF42
:102A2800A0F10400FFF7D4BF80B582B000AF786092
:102A380039607B68DB6803F00103002B07D1396834
:102A4800786800F041FB3B6801221A7006E039689B
:102A5800786800F0A5FC3B6802221A707B68DB6886
:102A68005A1C7B68DA6000BF0837BD4680BD00BFCE
:102A780080B582B000AF786039603B681B78012B65
:102A880004D13968786800F0CBFB07E03B681B7815
:102A9800022B03D13968786800F03EFD00BF083783
:102AA800BD4680BD80B582B000AF786039607B6874
:102AB800DB6803F00103002B07D13968786800F060
:102AC8002FF83B6801221A7006E03968786800F030
:102AD800A1F93B6802221A707B68DB685A1C7B6884
:102AE800DA6000BF0837BD4680BD00BF80B582B040
:102AF80000AF786039603B681B78012B04D13968D6
:102B0800786800F0C1F807E03B681B78022B03D116
:102B18003968786800F032FA00BF0837BD4680BDD2
:102B280080B586B000AFF860B960BB687B61F868B3
:102B3800FFF7E2FE0346D3ED017AB7EE001AFFEE87
:102B4800000AB0EE670A00F0B7FDF0EE407A9FED9C
:102B58004D7A67EE877AFDEEE77AC7ED017A3B7921
:102B68005AB27B695A70F868FFF7C6FE0346D3ED80
:102B7800027AB7EE001AFFEE000AB0EE670A00F01C
:102B88009BFDF0EE407A9FED3F7A67EE877AFDEE87
:102B9800E77AC7ED017A3B795AB27B699A70F8688F
:102BA800FFF7AAFE034619787A69D37861F3000320
:102BB800D370F868FFF7A0FE03461B7B03F0010300
:102BC800D9B27A69D37861F34103D370F868FFF713
:102BD80093FE03461B6903F00303D9B27A69D378DD
:102BE80061F38303D370F868FFF792FE034601216F
:102BF8001846FFF703FE034619467A69D37861F34E
:102C08000413D370F868FFF783FE03461B7803F0BC
:102C18000103D9B27A69D37861F34513D370F868A0
:102C2800FFF776FE03465B7803F00303D9B27A69AF
:102C3800D37861F38713D370F868FFF78DFE0346E6
:102C480019787A69137961F300031371F868FFF74B
:102C580083FE034659787A69137961F34103137146
:102C6800F868FFF779FE03469B7803F00303D9B2AF
:102C78007A69137961F38303137100BF1837BD466E
:102C880080BD00BF0000FE4290B52DED028B85B0DF
:102C980000AF786039603B68FB60FB6893F90130EE
:102CA80007EE903AF8EEE77ADFED596A87EEA67AF2
:102CB800B7EE001AFFEE000AB0EE470A00F0FCFC7F
:102CC800B0EE408A7868FFF717FE034683ED018A65
:102CD800FB6893F9023007EE903AF8EEE77ADFEDF9
:102CE8004C6A87EEA67AB7EE001AFFEE000AB0EE3D
:102CF800470A00F0E1FCB0EE408A7868FFF7FCFD77
:102D0800034683ED028AFB68DB7803F00103DBB23C
:102D1800002B14BF01230023DCB27868FFF7ECFD19
:102D2800034622461A70FB68DB78C3F34003DBB224
:102D38001C467868FFF7E0FD034622461A73FB68D5
:102D4800DB78C3F38103DBB21C467868FFF7D4FD58
:102D580003461C617868FFF7DBFD03461A46FB68EB
:102D6800DB7803F01003DBB2002B14BF0123002330
:102D7800DBB219461046FFF71DFDFB68DB78C3F38D
:102D88004013DBB21C467868FFF7C2FD03462246B3
:102D98001A70FB68DB78C3F38113DBB21C467868D2
:102DA800FFF7B6FD034622465A70FB681B7903F00D
:102DB8000103DBB2002B14BF01230023DCB27868C7
:102DC800FFF7CAFD034622461A70FB681B7903F019
:102DD8000203DBB2002B14BF01230023DCB27868A6
:102DE800FFF7BAFD034622465A70FB681B79C3F306
:102DF8008103DBB21C467868FFF7AEFD0346224626
:102E08009A7000BF1437BD46BDEC028B90BD00BF61
:102E18000000FE4290B587B000AFF860B960BB68AB
:102E28007B61F868FFF780FD0346DA787B695A70A2
:102E3800F868FFF779FD034693ED047AF2EE046A29
:102E4800C7EE267AFCEEE77AC7ED017A3B79DAB26B
:102E58007B699A70F868FFF767FD0346D3ED037A3C
:102E6800FCEEE77AC7ED017A3B79DAB27B69DA7072
:102E7800F868FFF759FD0346D3ED017A9FED3C1A38
:102E8800DFED3C0AB0EE670A00F016FCF0EE407A7F
:102E98009FED397A67EE877AFCEEE77A17EE903A7B
:102EA8009BB2C3F30B039AB27B69D1B200200143F2
:102EB8001971120A92B202F00F0202F00F005A7949
:102EC80022F00F02114602460A435A71F868FFF7CA
:102ED8002BFD0346D3ED027AFCEEE77A17EE903A23
:102EE8009BB2C3F309039AB27B6902F00F010C018C
:102EF800597901F00F010846214601435971120919
:102F080092B202F03F0202F03F009A7922F03F02AB
:102F1800114602460A439A71F868FFF705FD034611
:102F280059787A69937961F386139371F868FFF792
:102F3800FBFC034699787A69937961F3C713937117
:102F4800F868FFF7F1FC034619787A69D37961F3D9
:102F58000003D371F868FFF7E7FC0346197D7A6927
:102F6800D37961F34103D37100BF1C37BD4690BDCF
:102F780000002042000000000000C84290B52DED7E
:102F8800028B85B000AF786039603B68FB60FB68F6
:102F98005C787868FFF7C8FC03462246DA70FB685D
:102FA8009B781A4613469B0013445B0007EE903A41
:102FB800B8EEE78A7868FFF7B7FC034683ED048A22
:102FC800FB68DB7807EE903AB8EE678A7868FFF717
:102FD800ABFC034683ED038AFB681A795B7903F03F
:102FE8000F031B0213439BB21846FDF73BFA4FF041
:102FF8000002344BFDF7CAFB02460B461046194641
:10300800FDF75CFD04467868FFF78EFC03465C60BC
:10301800FB685A791209D2B29B7903F03F031B016E
:1030280013439BB207EE903AB8EE678A7868FFF7C9
:103038007BFC034683ED028AFB689B7903F040031F
:10304800DBB2002B14BF01230023DCB27868FFF742
:103058006BFC034622465A70FB689B7923F07F037A
:10306800DBB2002B14BF01230023DCB27868FFF722
:103078005BFC034622469A70FB68DB7903F0010388
:10308800DBB2002B14BF01230023DCB27868FFF702
:103098004BFC034622461A70FB68DB7903F00203F7
:1030A800DBB2002B14BF01230023DCB27868FFF7E2
:1030B8003BFC034622461A7500BF1437BD46BDECDB
:1030C800028B90BD0000594080B584B000AF786095
:1030D80039603B68FB607868FFF702FC0346597863
:1030E800FA68537861F3000353707868FFF704FCBB
:1030F80003461B7D03F00303D9B2FA68537861F3E2
:10310800420353707868FFF7F7FB0346D3ED097A5B
:103118009FED417A67EE877A17EE900AFDF7B4F9CA
:103128003BA3D3E90023FDF731FB02460B461046CB
:103138001946FDF79BFC03465AB2FB689A707868FB
:10314800FFF7DAFB0346D3ED077A9FED337A67EE94
:10315800877A17EE900AFDF797F92DA3D3E9002394
:10316800FDF714FB02460B4610461946FDF77EFC98
:1031780003465AB2FB68DA707868FFF7BDFB03466E
:10318800D3ED087A9FED247A67EE877A17EE900AD6
:10319800FDF77AF91EA3D3E90023FDF7F7FA0246F3
:1031A8000B4610461946FDF761FC03465AB2FB6808
:1031B8001A717868FFF7A0FB0346D3ED067A9FEDF6
:1031C800167A67EE877A17EE900AFDF75DF910A375
:1031D800D3E90023FDF7DAFA02460B4610461946F2
:1031E800FDF744FC03465AB2FB685A717868FFF74A
:1031F800A7FB03461A78FB689A717868FFF7A0FB6B
:1032080003465A78FB68DA7100BF1037BD4680BDA7
:10321800182D4454FB2109400000FE420000000024
:1032280090B585B000AF786039603B68FB60FB689B
:103238005B7803F00103DBB2002B14BF01230023EA
:10324800DCB27868FFF74CFB034622465A70FB68ED
:103258005B78C3F34103DBB21C467868FFF74CFB8D
:10326800034622461A75FB6893F902301846FDF7A3
:10327800F9F847A3D3E90023FDF75EF902460B46A8
:103288001046194644A3D3E90023FDF77FFA024606
:103298000B4610461946FDF711FC04467868FFF7FF
:1032A8002BFB03465C62FB6893F903301846FDF775
:1032B800D9F837A3D3E90023FDF73EF902460B46B8
:1032C8001046194634A3D3E90023FDF75FFA0246F6
:1032D8000B4610461946FDF7F1FB04467868FFF7E0
:1032E8000BFB0346DC61FB6893F904301846FDF7D5
:1032F800B9F827A3D3E90023FDF71EF902460B46C8
:103308001046194624A3D3E90023FDF73FFA0246E5
:103318000B4610461946FDF7D1FB04467868FFF7BF
:10332800EBFA03461C62FB6893F905301846FDF773
:1033380099F817A3D3E90023FDF7FEF802460B46D8
:103348001046194614A3D3E90023FDF71FFA0246D5
:103358000B4610461946FDF7B1FB04467868FFF79F
:10336800CBFA03469C61FB689C797868FFF7E8FA1A
:10337800034622461A70FB68DC797868FFF7E0FAA2
:10338800034622465A7000BF1437BD4690BD00BFA1
:10339800182D4454FB2109400000000000C05F4084
:1033A80080B586B000AFF860B960BB687B61F8682B
:1033B800FFF7AEFA034619797A69537861F3000387
:1033C8005370F868FFF7A4FA03465B7903F0030328
:1033D800D9B27A69537861F342035370F868FFF7FA
:1033E80097FA0346D3ED027A9FED497A27EE877A5A
:1033F800DFED486AC7EE267AFDEEE77AC7ED017A77
:103408003B795AB27B699A70F868FFF781FA0346EC
:10341800D3ED037A9FED3E7A27EE877ADFED3D6A9A
:10342800C7EE267AFDEEE77AC7ED017A3B795AB204
:103438007B69DA70F868FFF76BFA0346D3ED047A14
:103448009FED337A67EE877A17EE900AFDF71CF83E
:103458002DA3D3E90023FDF799F902460B46104640
:103468001946FDF703FB03465AB27B691A71F868DF
:10347800FFF74EFA0346D3ED057A9FED257A67EEFE
:10348800877A17EE900AFCF7FFFF1FA3D3E9002302
:10349800FDF77CF902460B4610461946FDF7E6FA99
:1034A80003465AB27B695A71F868FFF755FA034622
:1034B8001B7903F00303D9B27A69937961F30103A5
:1034C8009371F868FFF748FA0346D3ED027A9FED47
:1034D800107A67EE877A17EE900AFCF7D5FF0AA3F1
:1034E800D3E90023FDF752F902460B461046194668
:1034F800FDF7BCFA03465AB27B69DA7100BF183788
:10350800BD4680BDAFF30080182D4454FB2109400F
:103518000000FE420000524490B52DED028B85B0AC
:1035280000AF786039603B68FB60FB685B7803F04C
:103538000103DBB2002B14BF01230023DCB278683F
:10354800FFF7E6F9034622461A71FB685B78C3F376
:103558004103DBB21C467868FFF7DAF903462246D6
:103568005A71FB6893F9023007EE903AF8EEE77A61
:103578009FED4F7A67EE877A9FED4E7A87EE878ABE
:103588007868FFF7C5F9034683ED028AFB6893F96B
:10359800033007EE903AF8EEE77A9FED457A67EE4A
:1035A800877A9FED447A87EE878A7868FFF7B0F9C3
:1035B800034683ED038AFB6893F904301846FCF749
:1035C80051FF37A3D3E90023FCF7B6FF02460B46A9
:1035D8001046194634A3D3E90023FDF7D7F802466D
:1035E8000B4610461946FDF769FA04467868FFF756
:1035F8008FF903461C61FB6893F905301846FCF700
:1036080031FF27A3D3E90023FCF796FF02460B46B8
:103618001046194624A3D3E90023FDF7B7F802465C
:103628000B4610461946FDF749FA04467868FFF735
:103638006FF903465C61FB689B79C3F30103DBB256
:103648001C467868FFF788F9034622461A71FB681A
:1036580093F907301846FCF705FF11A3D3E90023B7
:10366800FCF76AFF02460B46104619460EA3D3E93B
:103678000023FDF78BF802460B4610461946FDF766
:103688001DFA04467868FFF767F903469C6000BF97
:103698001437BD46BDEC028B90BD00BFAFF3008070
:1036A800182D4454FB2109400000000000C05F4071
:1036B800000052440000FE42F4EEC10AF1EE10FA96
:1036C80005DBF0EE417AB0EE601AF0EE670AB4EE70
:1036D800C01AF1EE10FA07D4F4EEC00AF1EE10FAAF
:1036E800C8BFB0EE600A7047B0EE410A704700BF2D
:1036F80080B582B000AF78600B4A7B681A600B4ACD
:103708007B685A607B680433094A11461846FFF7FC
:1037180039F87B68074A11461846FFF723F87B6893
:1037280018460837BD4680BD1C960108509601080A
:103738006C96010868960108A0F10400D8E700BF5C
:1037480080B582B000AF78607868FFF7D1FF7868FD
:10375800FFF702F87B6818460837BD4680BD00BFF2
:10376800A0F10400ECE700BF80B483B000AF87EDA0
:10377800010AD7ED017AF0EEE77AB0EE670A0C3766
:10378800BD465DF8047B704780B582B000AF7860B5
:103798007B681B68002B09D17B68052283F85C20B5
:1037A800002316E07B68042283F85C207B681B6892
:1037B8000021184612F0DEFC0346002B14BF01233B
:1037C8000023DBB2002BEDD17B68012283F85C205B
:1037D800012318460837BD4680BD00BF80B582B0BA
:1037E80000AF78607B6893F85C30002B0AD178686A
:1037F800FFF7CAFF034683F00103DBB2002B01D0B9
:1038080000231DE07B6893F85C30032B01D900236B
:1038180016E0786800F018F87B6893F85C30012BA4
:1038280004D07B6893F85C30022B02D1786800F0F2
:103838001FF8786800F09AF8786800F013F9012307
:1038480018460837BD4680BD80B582B000AF7860A5
:103858007B6818687B6803F108017B6803F1140230
:103868007B68203312F0B2FC00BF0837BD4680BD2C
:1038780080B584B000AF78607B681A6E7B685B6E39
:103888009A426AD27B68D3ED0A7AB0EE670AFFF7EC
:103898006BFF87ED020A0023FB6051E07A68FB6842
:1038A80004339B0013440433D3ED007A97ED027A76
:1038B800B4EEE77AF1EE10FA3ED47A68FB68043386
:1038C8009B001344043393ED007AD7ED027AF1EEAE
:1038D800677AB4EEE77AF1EE10FA2DD47A68FB68CD
:1038E8000A339B001344043393ED007A7A68FB682B
:1038F80004339B0013440433D3ED006A7A68FB68F1
:103908000A339B0013440433D3ED007A36EEE76A9A
:103918007B681B6E013307EE903AF8EE676AC6EED5
:10392800267A77EE277A7A68FB680A339B00134475
:103938000433C3ED007A00E000BFFB680133FB608D
:10394800FB68022BAAD97B68022283F85C207B687B
:103958001B6E5A1C7B681A6603E07B68032283F897
:103968005C2000BF1037BD4680BD00BF80B586B063
:1039780000AF78607B68D3ED097AB0EE670AFFF78D
:10398800F3FE87ED030A00237B6140E07A687B69D8
:1039980002339B001344D3ED007A97ED037AB4EE1B
:1039A800E77AF1EE10FA07D57A687B690E339B0047
:1039B8001344FA681A6027E07A687B6902339B002F
:1039C800134493ED007AD7ED037AF1EE677AB4EEFB
:1039D800E77AF1EE10FA0BD5D7ED037AF1EE677AB4
:1039E8007A687B690E339B001344C3ED007A0BE0C1
:1039F8007A687B6902339B0013441A6879687B698B
:103A08000E339B000B441A607B6901337B617B6931
:103A1800022BBBD900233B611CE07A683B69043365
:103A28009B001344043393ED007A7A683B690A33A8
:103A38009B0013440433D3ED007A77EE677A7A68F3
:103A48003B6910339B0013440433C3ED007A3B6990
:103A580001333B613B69022BDFD900BF00BF183738
:103A6800BD4680BD80B582B000AF78607B685B687A
:103A7800002B05D17B68052283F85C20002316E023
:103A88007B685B681B6808331B687A6850687A68CB
:103A980002F138017A68443298477B685B681A46B5
:103AA8007B6850331946104610F060F80123184619
:103AB8000837BD4680BD00BF80B483B000AF7860D2
:103AC8007B681B7C18460C37BD465DF8047B704745
:103AD80080B483B000AF78607B685B7C18460C3795
:103AE800BD465DF8047B704780B582B000AF786052
:103AF80012F09EFA034618460837BD4680BD00BF3F
:103B080080B582B000AF78607B685A687B689A603D
:103B18007868FFF7E9FF02467B685A607B685A6855
:103B28007B689B68D21A7B68DA607B685B6818469A
:103B38000837BD4680BD00BF80B483B000AF786051
:103B48000B46FB707B681B7CFA789A4206D07B6830
:103B58001A7C7B685A747B68FA781A7400BF0C3731
:103B6800BD465DF8047B704780B400AF72B600BFF5
:103B780000BFFDE708B5F4EEC00AF1EE10FA2DED2E
:103B8800048BB0EE408AF0EE608AB0EE419A15DD03
:103B980078EEC88A39EE480AF0EE680A15F01CF883
:103BA800B5EEC00AF1EE10FA4ABF78EE808A38EE18
:103BB800000A38EE880ABDEC048B08BDFFF7D4FF75
:103BC800E6E700BF08B5B0EE401ADFED030A9FED47
:103BD800030AFFF7CFFF08BDDB0F4940DB0F49C0E1
:103BE80008B5B5EEC01AF1EE10FA2DED048BF0EE23
:103BF800418AB0EE408AB0EE609A0CDD38EE498A10
:103C080088EE280A15F01AF8A8EEC08AB0EE480A1D
:103C1800BDEC048B08BDFFF7A7FFEFE738B50446F6
:103C2800007A00B138BD656812F002FA2368401BBB
:103C380098428ABF0120207A207238BDD0ED097AD7
:103C480080ED020A77EEC07AC0ED177A704700BFA0
:103C580008B56830FFF7E2FF08BD00BF90ED020A23
:103C6800704700BF90ED030A704700BF90ED060A49
:103C7800704700BF80B483B000AF78607B680022D3
:103C88009A707B6800229A6000BF0C37BD465DF8C9
:103C9800047B704780B483B000AF78607B680022F3
:103CA8005A6000BF0C37BD465DF8047B704700BF03
:103CB80080B582B000AF7860786800F007F878685F
:103CC80000F014F800BF0837BD4680BD80B582B04B
:103CD80000AF78607B681846FFF712FF786800F03D
:103CE8004BF800BF0837BD4680BD00BF80B584B023
:103CF80000AF78607B6893F829207B6883F82820D8
:103D08007B6893F8283083F00103DBB2002B05D0E1
:103D18007B6800211846FFF70FFF2AE07B681B7CB1
:103D2800BB73BB7BFB73BB7B002B07D17B6893F812
:103D38002830002B17D00123FB7314E0BB7B012B29
:103D48000CD17B6893F84030002B0CD07B6893F83B
:103D58003830002B07D00223FB7304E0BB7B022B17
:103D680001D00023FB737B68FA7B11461846FFF7E6
:103D7800E3FE1037BD4680BD80B584B000AF7860E3
:103D88000023FB730023BB607B68DB6FBB60BB68F1
:103D9800002B01D1FFF7E8FE7B681A6D7B685A6536
:103DA800B868FFF755FF0346002B16D07B684FF025
:103DB80000021A657B684FF000029A657B684FF035
:103DC8000002DA657B6840331846FFF763FF7B68BB
:103DD80040331846FFF74EFF1FE0B868FFF73EFF75
:103DE800F0EE407A7B68C3ED147AB868FFF73AFFC3
:103DF800F0EE407A7B68C3ED167AB868FFF736FFB5
:103E0800F0EE407A7B68C3ED177A0123FB7378687C
:103E180000F08EF8786800F03FF87B68FA7B83F84A
:103E2800292000BF1037BD4680BD00BF80B483B0D5
:103E380000AF786039607B6893ED1B7A3B68D3EDFF
:103E4800027AB4EE677AF1EE10FA03D07B68DA6E84
:103E58007B681A673B681A787B6883F864203B683C
:103E68005A787B6883F865203B689A787B6883F882
:103E780066203B685A687B689A663B689A687B68E4
:103E8800DA663B68DA687B685A6700BF0C37BD465C
:103E98005DF8047B704700BF80B483B000AF7860E2
:103EA8007B6893ED177A7B68D3ED087AF1EE677A31
:103EB800B4EEE77AF1EE10FA0FD87B689A6C7B685B
:103EC800DB681A447B689A647B689B6CC72B26D98D
:103ED8007B68022283F8422021E07B6893ED177A01
:103EE8007B68D3ED087AB4EEE77AF1EE10FA0FDBCF
:103EF8007B689A6C7B68DB681A447B689A647B6889
:103F08009B6CC72B0BD97B68012283F8422006E003
:103F18007B6800229A647B68002283F8422000BFF5
:103F28000C37BD465DF8047B704700BF00000000F9
:103F380080B584B000AF78607B68D3ED147A7B6875
:103F480093ED157A9FED161AF0EE470AB0EE670A60
:103F5800FFF746FE87ED030AD7ED037AF0EEE77A1E
:103F680017EE900AFCF790FA0BA3D3E90023FCF7AD
:103F780055FD0346002B07D07B685A6C7B68DB68CD
:103F88001A447B685A6402E07B6800225A6400BFC6
:103F98001037BD4680BD00BFFCA9F1D24D62503F2D
:103FA800DB0FC94080B582B000AF78607B681B7CAE
:103FB800002B03D1786800F019F812E07B681B7CAD
:103FC800012B03D1786800F021F80AE07B681B7C9C
:103FD800022B03D1786800F03BF802E0786800F023
:103FE80005F800BF0837BD4680BD00BF80B582B068
:103FF80000AF7860786800F001FB0021786800F075
:1040080049FB00BF0837BD4680BD00BF80B582B000
:1040180000AF78607B68DA6B7B68DB681A447B6882
:10402800DA63786800F01CFB786800F07FF97B6839
:1040380093F84030002B02D1786800F04FFA012144
:10404800786800F027FB00BF0837BD4680BD00BF79
:1040580080B582B000AF7860786800F02DF8786895
:1040680000F0A8F8786800F0B7F9786800F036FA38
:104078000121786800F00EFB00BF0837BD4680BDFF
:1040880080B582B000AF78607B684FF00002DA62DA
:104098007B68002283F830207B684FF00002DA64E6
:1040A8007B684FF000021A660021786800F0F2FA87
:1040B80000BF0837BD4680BD80B584B000AF7860CA
:1040C8007B6893F84230012B04D17B68002283F887
:1040D80030206CE00023FB737B6893F82630002BBC
:1040E80004D17B6893F82430FB730CE07B6893F869
:1040F8002630012B07D17B6893F82530012B0CBFA4
:1041080001230023FB737B6893F82730022B3BD0F5
:10411800022B3ED8002B02D0012B24D039E0FB7BA8
:10412800002B08D0C821786800F0B2F80346002BAD
:1041380001D0012200E000227B6883F830207B68F0
:1041480093F83030002B09D0B7EE080A786800F0F1
:10415800B5F80346002B01D0012200E000227B685D
:1041680083F830201AE0FB7B002B08D064217868A4
:1041780000F08EF80346002B01D0012200E0002257
:104188007B6883F8302009E07B68002283F83020C0
:1041980004E07B68002283F8302000BF7B6893F836
:1041A8003030002B03D07B685A687B685A6310371D
:1041B800BD4680BD80B584B000AF78607B6893F859
:1041C8006430002B14D07B6893ED0B7A7B68D3EDB9
:1041D800076A7B6893F8663007EE903AF8EE677ADC
:1041E80066EEA77A77EE277A7B68C3ED0B7A23E031
:1041F8007B6893F84230012B0AD17B6893ED0B7AE8
:104208007B68D3ED077A77EE677A7B68C3ED0B7A24
:104218007B6893ED0B7A7B68D3ED076A7B6893F82C
:10422800303007EE903AF8EE677A66EEA77A77EEC6
:10423800277A7B68C3ED0B7A7B6893ED0B7A7B68F2
:10424800D3ED1D6A7B68DB6807EE903AF8EE677A73
:1042580066EEA77ADFED0D6A67EEA67A77EE677AE3
:104268007B68C3ED0B7A7B682C334FF00002FA6051
:1042780007F10C021146184600F0B8FA03461A680E
:104288007B68DA6200BF1037BD4680BD6F12833A83
:1042980080B483B000AF786039607B685A687B6807
:1042A8005B6BD31A3A689A4234BF01230023DBB20E
:1042B80018460C37BD465DF8047B704780B485B05E
:1042C80000AF786087ED000A7B6893ED1B7A7B6806
:1042D800D3ED0B7AB4EEE77AF1EE10FA02DD7B68E3
:1042E800DB6E01E07B68DB6AFB607B6893ED1A7A22
:1042F800D7ED037A77EE676A7B6893ED077AC6EEA7
:10430800877AC7ED027A97ED027AD7ED007AB4EE94
:10431800E77AF1EE10FAACBF01230023DBB21846AE
:104328001437BD465DF8047B704700BF80B584B084
:1043380000AF78607B68DB6FFB60FB68002B01D106
:10434800FFF712FC7B687833002B01D1FFF70CFCD8
:104358007B6893F84030012B32D01C4BBB607B68E4
:10436800D3ED147A9FED1A7A77EEC77AB0EE670A22
:10437800FFF728FCF0EE407A7B68C3ED137A7B6880
:10438800DB6BB3F5FA7F1DD97B6893F84230022BBB
:1043980003D07B685B6C642B15D97B68012283F89A
:1043A80040209FED0C0AF868FFF748FC7B684FF047
:1043B8000002DA647B6840331846FFF75BFC02E0D2
:1043C80000BF00E000BF1037BD4680BDC3B8B23D96
:1043D800C3B8B23D0000000080B582B000AF78607D
:1043E8007B6893F82730022B70D07B6893F84230B3
:1043F800012B0FD17B6893ED137A7B68D3ED067A96
:1044080077EE677A7B68C3ED137A7B68403318468A
:10441800FFF730FC7B6893F84230022B12D17B689F
:10442800D3ED147A9FED2B7A77EE877A7B68C3ED0C
:10443800137A7B6840331846FFF71CFC7B68002220
:1044480083F841207B6893F83030002B31D07B68AB
:1044580093F84130002B21D17B6893ED147A7B6867
:10446800D3ED067AF5EE407AF1EE10FA14BF012387
:104478000023DBB29FED181A1946F7EE000AB0EEDA
:10448800470A786800F04EF9F0EE407A7B68C3ED91
:10449800137A7B68012283F841200AE07B6893ED58
:1044A800137A7B68D3ED067A77EE277A7B68C3EDBB
:1044B800137A7B68D3ED137AB0EE670AFFF782FBB5
:1044C800F0EE407A7B68C3ED137A00E000BF08374E
:1044D800BD4680BD0AD7233C920A863F90B58BB073
:1044E80002AF78607B68DB6FFB61FB69002B01D151
:1044F800FFF73AFB7B689B6FBB617B687833002BC7
:1045080001D1FFF731FBF869FFF7A2FB0346002B47
:1045180004D07B684FF000021A6616E07B68DB6CFB
:104528007B617B681B6DFB607B689B6D3B61BB6936
:104538001B6808331C687B68603307F10C0207F1BD
:10454800140100930023B869A04700BF2437BD4673
:1045580090BD00BF80B582B000AF78607B68002254
:104568001A747B6800225A747B68002283F826201C
:104578007B68002283F827207B68002283F82820A4
:104588007B68002283F829207B684FF00002DA62FA
:104598007B68002283F830207B6800225A637B689E
:1045A800002283F840207B68002283F841207B6842
:1045B80040331846FFF76EFB7B6840331846FFF719
:1045C80059FB7B684FF00002DA647B684FF0000209
:1045D8001A657B684FF000025A657B684FF000024D
:1045E8009A657B684FF00002DA657B684FF000023D
:1045F8001A6600BF0837BD4680BD00BF80B582B0CF
:1046080000AF78607B6800211846FFF795FA7B6851
:104618004FF00002DA627B68002283F830207B6862
:104628000022DA637B68002283F840207B6800223E
:1046380083F841207B6840331846FFF72BFB7B68E3
:1046480040331846FFF716FB7B684FF00002DA6428
:104658007B684FF000021A6600BF0837BD4680BD70
:1046680080B582B000AF78607B6801211846FFF7FB
:1046780063FA7B684FF00002DA627B68002283F8F5
:1046880030207B68002283F8412000BF0837BD46F0
:1046980080BD00BF80B586B000AF78600B46FB7068
:1046A8007B681B6E7B617B68DB6F3B617B689B6F04
:1046B800FB603B69002B01D1FFF756FAFB68002B22
:1046C80001D1FFF751FA3869FFF7C2FA034683F0C0
:1046D8000103DBB2002B04D0FB78002B01D00123AF
:1046E80000E00023002B08D03B691B683C331B68A3
:1046F80097ED050A386998470DE0FB681B680C338D
:104708001B68F86898473B691B683C331B689FED3A
:10471800040A3869984700BF1837BD4680BD00BFF6
:104728000000000080B58AB000AF786187ED040A08
:10473800C7ED030A0B4687ED011AFB724FF0000321
:10474800FB61FB687B6200233B623FE097ED097ADF
:10475800D7ED017A77EE277AC7ED097A9FED221A0D
:10476800D7ED040A97ED090AFFF73AFA87ED070A29
:10477800FB7A83F00103DBB2002B11D0D7ED017A6D
:10478800F1EE677A97ED077AB4EEE77AF1EE10FA70
:1047980006DDD7ED077AF5EEC07AF1EE10FA1AD9F0
:1047A800FB7A002B0FD0D7ED077AF5EEC07AF1EE41
:1047B80010FA08DD97ED077AD7ED017AB4EEE77ABB
:1047C800F1EE10FA06D43B6A01333B623B6A052BD3
:1047D800BCD900E000BF7B6A07EE903AB0EE670AEA
:1047E8002837BD4680BD00BFDB0FC94080B483B009
:1047F80000AF786039607B6893ED007A3B68D3ED51
:10480800007AB4EEE77AF1EE10FA01D53B6800E0E1
:104818007B6818460C37BD465DF8047B704700BFBF
:1048280080B400AF72B600BF00BFFDE780B483B0AC
:1048380000AF78607B6800225A607B6800225A705B
:1048480000BF0C37BD465DF8047B704780B483B069
:1048580000AF78607B6800225A6000BF0C37BD4605
:104868005DF8047B704700BF80B582B000AF786008
:10487800786800F007F8786800F014F800BF083787
:10488800BD4680BD80B582B000AF78607B681846B1
:10489800FFF736F9786800F047F800BF0837BD46DB
:1048A80080BD00BF80B584B000AF78607B6893F8A6
:1048B8003A207B6883F839207B6893F8393083F095
:1048C8000103DBB2002B05D07B6800211846FFF7F7
:1048D80033F925E07B681B7CBB73BB7BFB73BB7B1D
:1048E800002B07D17B6893F83930002B12D00123B5
:1048F800FB730FE0BB7B012B07D17B6893F840303B
:10490800002B07D00223FB7304E0BB7B022B01D0F2
:104918000023FB737B68FA7B11461846FFF70CF9F6
:104928001037BD4680BD00BF90B589B000AF786034
:104938000023FB7700237B6100233B7401237B74F6
:1049480000233B7301237B730023BB617FE007F1E6
:104958001002BB6913441B787A6820339B00134408
:104968005B687B617B69002B01D1FFF759FF07F179
:104978000C02BB6913441B78194607F10C02BB698A
:1049880013441B7818467A6801F114039B001344FA
:104998001A68796800F116039B000B441A6078695D
:1049A800FFF756F90346002B22D007F10C02BB692A
:1049B80013441B787A6814339B0013444FF00002A9
:1049C8001A6007F10C02BB6913441B787A68183324
:1049D8009B0013444FF000021A607B68403318466E
:1049E800FFF734FF7B6840331846FFF71FFF2BE0C3
:1049F80007F10C02BB6913441B781C467869FFF762
:104A080031F9F0EE407A7A6804F114039B001344FC
:104A1800C3ED007A07F10C02BB6913441B781C46EE
:104A28007869FFF723F9F0EE407A7A6804F1180301
:104A38009B001344C3ED007A0123FB77786800F0EC
:104A48005BF8786800F0BAF8BB690133BB61BB69F1
:104A5800012B7FF67CAF7B68FA7F83F83A2000BF92
:104A68002437BD4690BD00BF80B483B000AF7860E6
:104A780039607B6893ED1D7A3B68D3ED027AB4EE1A
:104A8800677AF1EE10FA2CD03B6893ED027A7B68D6
:104A9800D3ED057AB4EEE77AF1EE10FA21DB3B6844
:104AA80093ED027A7B68D3ED067AB4EEE77AF1EEFD
:104AB80010FA16D87B685A6F7B689A677B68D3EDC3
:104AC8001E7AB6EE007A27EE877A3B68D3ED027A33
:104AD800F6EE006A67EEA67A77EE277A7B68C3ED72
:104AE8001D7A3B681A787B6883F8702000BF0C3702
:104AF800BD465DF8047B704780B483B000AF786032
:104B08007B6893ED187A7B68D3ED0B7AF1EE677AC0
:104B1800B4EEE77AF1EE10FA0CD97B6893ED197AC6
:104B28007B68D3ED0B7AF1EE677AB4EEE77AF1EEB3
:104B380010FA0FD87B689A6C7B68DB681A447B682C
:104B48009A647B689B6C592B32D97B68022283F864
:104B580041202DE07B6893ED187A7B68D3ED0B7AC2
:104B6800B4EEE77AF1EE10FA0ADA7B6893ED197A77
:104B78007B68D3ED0B7AB4EEE77AF1EE10FA0FDB2F
:104B88007B689A6C7B68DB681A447B689A647B68EC
:104B98009B6C592B0CD97B68022283F8412007E0D3
:104BA8007B6800229A647B68002283F8412000BF5A
:104BB80000BF0C37BD465DF8047B704780B487B0F2
:104BC80000AF786000233B7200237B7200237B6177
:104BD80047E07A687B6914339B00134493ED007AAD
:104BE8007A687B6916339B001344D3ED007A77EE1D
:104BF800677AC7ED047A7B6893ED137A7A687B69E4
:104C080014339B001344D3ED007A77EE677AC7ED2F
:104C1800037AD7ED047AB0EEE77A7B68D3ED0C7AA5
:104C2800F0EEE77AB4EEE77AF1EE10FA0FD5D7EDA9
:104C3800037AB0EEE77A7B68D3ED0D7AF0EEE77A87
:104C4800B4EEE77AF1EE10FA01D5012100E0002177
:104C580007F108027B6913440A461A707B6901331D
:104C68007B617B69012BB4D93B7A002B0AD07B7A14
:104C7800002B07D07B685A6C7B68DB681A447B681A
:104C88005A6403E07B6800225A6400BF00BF1C37E7
:104C9800BD465DF8047B704780B582B000AF786090
:104CA8007B681B7C002B03D1786800F015F80EE0B8
:104CB8007B681B7C012B03D1786800F01DF806E0A7
:104CC8007B681B7C022B02D1786800F031F800BFAA
:104CD8000837BD4680BD00BF80B582B000AF7860A0
:104CE800786800F0A9F90021786800F0E1F900BFC0
:104CF8000837BD4680BD00BF80B582B000AF786080
:104D08007B68DA6B7B68DB681A447B68DA637868EF
:104D180000F0BCF9786800F035F8786800F0C4F85D
:104D28000121786800F0C4F900BF0837BD4680BD8E
:104D380080B582B000AF7860786800F051F8786884
:104D480000F0B2F80121786800F0B2F900BF083726
:104D5800BD4680BD80B582B000AF78607B684FF0FB
:104D68000002DA647B68683308220021184614F0D0
:104D7800BDF90021786800F09BF900BF0837BD46EF
:104D880080BD00BF80B483B000AF78607B6893F8C3
:104D98003830032B04D07B6893F84130002B04D0C3
:104DA8007B684FF00002DA6415E07B6893F83830CE
:104DB800022B04D17B689A6A7B68DA640BE07B6813
:104DC8005A6A7B68DA647B685B6CC82B03D97B689A
:104DD800012283F840200C37BD465DF8047B7047FC
:104DE80080B485B000AF78607B6893F83830022BC8
:104DF80004D17B689A6A7B68DA644FE07B6893F831
:104E08003830032B04D07B6893F84130002B04D052
:104E18007B684FF00002DA6440E07B685B6FFB6000
:104E28007B68D3ED1E7A97ED037AB4EE677AF1EEDC
:104E380010FA2FD0D7ED037AF5EE407AF1EE10FA9A
:104E480028D07B68D3ED077A97ED037AB4EEE77A3A
:104E5800F1EE10FA0ADD7B68D3ED097AB1EE047A37
:104E680077EEC77A7B68C3ED097A13E07B68D3EDE8
:104E7800087A97ED037AB4EEE77AF1EE10FA09D5DD
:104E88007B68D3ED097AB1EE047A77EE877A7B688E
:104E9800C3ED097A7B685A6A7B68DA641437BD46C1
:104EA8005DF8047B704700BF90B58FB002AF7860A3
:104EB8000023BB6200237B62002387F82030012394
:104EC80087F8213000233B7701237B7700233B764B
:104ED80001237B760023FB6264E007F12002FB6A72
:104EE80013441B787A6820339B0013445B68BB62C9
:104EF80007F11C02FB6A13441B787A681E339B0077
:104F080013445B687B62BB6A002B01D1FFF788FC06
:104F18007B687C33002B01D1FFF782FCB86AFEF76F
:104F280097FE0346002B0CD007F11802FB6A1344C6
:104F38001B787A681A339B0013444FF000021A60FA
:104F48002DE07B68DB6C7B6107F11802FB6A134478
:104F58001B787A6814339B0013441B68FB6007F1C5
:104F68001802FB6A13441B787A6818339B001344B1
:104F78001B683B617B6A1B6808331C6807F11802D1
:104F8800FB6A13441B781A339B007A68134407F1B1
:104F98000C0207F1140100930023786AA047FB6A0A
:104FA8000133FB62FB6A012B97D900BF00BF34377E
:104FB800BD4690BD80B582B000AF78607B680022A6
:104FC8001A747B6800225A747B68002283F83820A0
:104FD8007B68002283F839207B68002283F83A2016
:104FE8007B68002283F840207B6840331846FFF72F
:104FF8002DFC7B6840331846FFF718FC7B684FF0A0
:105008000002DA647B68503308220021184614F045
:105018006DF87B68603308220021184614F066F8A2
:105028007B68683308220021184614F05FF800BF37
:105038000837BD4680BD00BF80B582B000AF78603C
:105048007B6800211846FEF777FD7B680022DA634B
:105058007B68002283F840207B6840331846FFF7BE
:10506800F5FB7B6840331846FFF7E0FB7B684FF0A1
:105078000002DA647B68683308220021184614F0BD
:1050880035F800BF0837BD4680BD00BF80B582B087
:1050980000AF78607B6801211846FEF74DFD7B68FC
:1050A800002283F8402000BF0837BD4680BD00BFFE
:1050B80080B58AB000AF78600B46FB707B689B6E4A
:1050C8007B617B68DB6EBB6100233B7401237B74CF
:1050D80000233B7301237B7300233B620023FB61A6
:1050E80000237B624CE007F110027B6A13441B78B3
:1050F8007A6820339B0013445B683B6207F10C021B
:105108007B6A13441B787A681E339B0013445B68E0
:10511800FB613B6A002B01D1FFF782FB386AFEF77F
:1051280097FD034683F00103DBB2002B04D0FB7824
:10513800002B01D0012300E00023002B15D0FB69D0
:105148001B680C331B68F86998473B6A1B683C333B
:105158001B687A6A920028323A44143AD2ED007AEF
:10516800B0EE670A386A984707E03B6A1B683C3329
:105178001B689FED070A386A98477B6A01337B6290
:105188007B6A012BAFD900BF00BF2837BD4680BD61
:105198000000000080B400AF72B600BF00BFFDE79A
:1051A80080B483B000AF78607B685B6D07EE903A9F
:1051B800B0EE670A0C37BD465DF8047B704700BF48
:1051C80080B483B000AF78607B689B6D07EE903A3F
:1051D800B0EE670A0C37BD465DF8047B704700BF28
:1051E80080B483B000AF78607B689B6C07EE903A20
:1051F800B0EE670A0C37BD465DF8047B704700BF08
:1052080080B483B000AF78607B68DB6C07EE903ABF
:10521800B0EE670A0C37BD465DF8047B704700BFE7
:1052280080B582B000AF78600B46FB70FB781946FA
:10523800786800F06DFD00BF0837BD4680BD00BF2F
:1052480080B582B000AF7860786800F007F87868B9
:1052580000F01AF800BF0837BD4680BD80B582B09F
:1052680000AF78607B681846FEF74AFC786800F063
:1052780047F8786800F0D4F8786800F0B7F800BF0D
:105288000837BD4680BD00BF80B584B000AF7860E8
:105298007B6893F8483083F00103DBB2002B05D01C
:1052A8007B6800211846FEF747FC25E07B681B7CDD
:1052B800BB73BB7BFB73BB7B002B07D17B6893F86D
:1052C8004830002B12D00123FB730FE0BB7B012B6E
:1052D80007D17B6893F87C30002B07D00223FB733F
:1052E80004E0BB7B022B01D00023FB737B68FA7BB5
:1052F80011461846FEF720FC1037BD4680BD00BF9A
:1053080090B587B000AF78600023FB6001233B7243
:1053180000237B720023FB750123BB7500233B61CF
:1053280055E007F108023B6913441B78FB72FB7ACE
:105338007A682C339B0013445B68FB60FB68002B86
:1053480001D1FFF727FFF868FEF782FC0346002B20
:1053580012D0FB7A7A6820339B0013444FF0000286
:105368001A60FB7A7A6822339B0013444FF00002DC
:105378001A600023BB7527E00123FB75FC7AF868E7
:10538800FEF76CFCF0EE407A7A6804F120039B008B
:105398001344C3ED007AFA7A7B682A3253F8223034
:1053A8001B6808331B68F97A7A682A3152F8210099
:1053B800FA7A2032920079688C18FA7A22329200AE
:1053C80079680A44214698473B6901333B613B6948
:1053D800012BA6D97B68FA7D83F87C207B68BA7D8F
:1053E80083F87D2000BF1C37BD4690BD80B483B0D4
:1053F80000AF78607B6893F87C30002B03D17B6822
:10540800DB7C002B01D0012200E000227B6883F8BE
:10541800482000BF0C37BD465DF8047B704700BFCD
:1054280080B582B000AF78607B68D3F8B030002BCD
:1054380001D1FFF7AFFE7B68D3F8B0301846FFF70D
:10544800BFFEF0EE407A7B68C3ED257A7B68D3F81F
:10545800B0301846FFF7A4FEF0EE407AF1EE677A16
:105468007B68C3ED247A7B68D3F8B0301846FFF721
:10547800C7FEF0EE407A7B68C3ED277A7B68D3F8E5
:10548800B0301846FFF7ACFEF0EE407AF1EE677ADE
:105498007B68C3ED267A00BF0837BD4680BD00BFD4
:1054A80080B582B000AF78607B681B7C002B03D18D
:1054B800786800F019F812E07B681B7C012B03D197
:1054C800786800F021F80AE07B681B7C022B03D186
:1054D800786800F029F802E0786800F005F800BF65
:1054E8000837BD4680BD00BF80B582B000AF786088
:1054F800786800F06BFB00217868FFF791FE00BF29
:105508000837BD4680BD00BF80B582B000AF786067
:10551800786800F097FB00217868FFF781FE00BFEC
:105528000837BD4680BD00BF80B582B000AF786047
:10553800786800F02DF8786800F062F8786800F074
:10554800ADF8786800F00EF9786800F049FA0121A2
:105558007868FFF765FE00BF0837BD4680BD00BF0D
:1055680080B582B000AF7860786800F011F878688C
:1055780000F046F8786800F091F8786800F0F2F8E2
:1055880000217868FFF74CFE00BF0837BD4680BD94
:1055980080B483B000AF78607B6893F851207B6853
:1055A80083F853207B6893F850207B6883F8522057
:1055B8007B68DB6A012B08D17B68012283F85120C4
:1055C8007B68002283F8502014E07B68DB6A002B9C
:1055D80008D17B68002283F851207B68002283F879
:1055E800502007E07B68002283F851207B68002266
:1055F80083F8502000BF0C37BD465DF8047B704728
:1056080080B485B000AF786001233B7200237B72C1
:105618000023FB6037E007F10802FB6813441B789E
:10562800FB72FB7A7A68134493F85030012B0DD142
:10563800FA7AFB7A7968203292000A44126879680B
:1056480018339B000B4404331A600CE0FA7AFB7A97
:105658007968243292000A441268796818339B00EA
:105668000B4404331A60FA7AFB7A7968263292007E
:105678000A44126879681A339B000B4404331A6091
:10568800FB680133FB60FB68012BC4D900BF00BF76
:105698001437BD465DF8047B704700BF80B584B001
:1056A80000AF786001233B7200237B720023FB600C
:1056B8004FE007F10802FB6813441B78FB72FB7A82
:1056C8007A68134493F85220FB7A79680B4493F86C
:1056D80050309A420ED1FA7AFB7A796816329200E3
:1056E8000A4404321268796814339B000B4404336B
:1056F8001A602BE0FB7A7A68134493F85030012B38
:105708000DD1FA7AFB7A7968203292000A4412683D
:10571800796814339B000B4404331A6016E0FB7A53
:105728007A68134493F85030002B0DD1FA7AFB7A3B
:105738007968243292000A441268796814339B000D
:105748000B4404331A6001E0FFF724FDFB680133C2
:10575800FB60FB68012BACD900BF00BF1037BD460A
:1057680080BD00BF80B588B000AF786007F108033E
:1057780000221A605A607B6893F82830012B2FD1D9
:105788007B6893F82430002B2AD07B6893ED1A7A33
:105798007B68D3ED087A77EE677AF0EEE77A9FEDCB
:1057A8008B7AF4EEC77AF1EE10FA19D57B6893ED8F
:1057B800197A7B68D3ED077A77EE677AF0EEE77AA5
:1057C8009FED837AF4EEC77AF1EE10FA08D57A687D
:1057D80007F108031C3292E8030083E803008FE016
:1057E8007B6893F82830002B40F08A807B681B6B1D
:1057F800FB617B685B6BBB617B68DB6A012B0FD14C
:10580800D7ED077A9FED737A67EE877AC7ED077A47
:10581800D7ED067A9FED6F7A67EE877AC7ED067A3D
:105828007B689B7C002B13D07B685A687B68DB6C99
:10583800D31AC82B0CD97B68D3ED167A9FED667AFC
:1058480077EE877AC7ED037A7B685A687B68DA64F3
:105858007B6893ED167A7B68D3ED066AD7ED077AF5
:1058680066EEA77A77EE277AC7ED037A7B685B6DD9
:10587800BB607B6893ED207A7B68D3ED0E7ADFED11
:10588800576A77EEE67AB4EEE77AF1EE10FACCBF13
:1058980001230023FB757B6893ED207A7B68D3EDA9
:1058A8000F7ADFED4E6A77EEA67AB4EEE77AF1EE7C
:1058B80010FA4CBF01230023BB75FB7D002B07D0DA
:1058C8007B68D3ED057AF5EEC07AF1EE10FA17DCB5
:1058D800BB7D002B07D07B68D3ED057AF5EEC07A47
:1058E800F1EE10FA0CD497ED027A7B68D3ED056AD5
:1058F800D7ED067A66EEA77A77EE277AC7ED027AB1
:10590800D7ED037AB0EE670AFEF75CF9F0EE407A5D
:10591800C7ED037AD7ED027AB0EE670AFEF752F9BF
:10592800F0EE407AC7ED027A7B6893F85030012B8D
:1059380014D1D7ED027A7B6893ED0F7A7B68D3EDAB
:105948000E6AB0EE661AF0EE470AB0EE670AFDF787
:10595800B3FEF0EE407AC7ED027A2DE07B6893F84B
:105968005030002B26D17B6893ED247A7B68D3EDE9
:10597800207A77EE677AC7ED047AD7ED026A7B68FA
:1059880093ED0F7AD7ED047A37EE276A7B6893EDAB
:105998000E7AD7ED047A77EE277AB0EE671AF0EE32
:1059A800460AB0EE660AFDF787FEF0EE407AC7EDCC
:1059B800027A01E0FFF7EEFBFA687B681A66BA68BC
:1059C8007B68DA6500BF2037BD4680BD3333333E80
:1059D800295C0F3ECDCCCC3DDB0F4940CDCC4C3DB6
:1059E80090B52DED028B91B002AF7860012387F856
:1059F8002830002387F8293007F1200300221A6095
:105A08005A607B6893ED108A7B6893ED197A7B68FE
:105A1800D3ED117A77EE277AB0EE670A12F0BCFC64
:105A2800F0EE407A68EE277AC7ED087A07F1180396
:105A380000221A605A6007F12003FB61002387F8EF
:105A4800373053E097F8373038333B4413F8103C7D
:105A580087F8363007F1100300221A605A6097F869
:105A680036307A6816339B00134404331B683B6155
:105A780097F836307A6818339B00134404331B6850
:105A8800BB6097F836307A681A339B0013440433A6
:105A98001B68FB6097F837309B0038333B4453F85A
:105AA800203C3B6397F836207B68283253F8223035
:105AB800FB62FB6A002B01D1FFF76CFBFB6A1B68DA
:105AC80008331C6897F836301C339B007A681344F7
